{
  "_format": "hh-sol-artifact-1",
  "contractName": "Crypto",
  "sourceName": "contracts/Crypto.sol",
  "abi": [
    {
      "inputs": [
        {
          "internalType": "bytes32",
          "name": "seed",
          "type": "bytes32"
        },
        {
          "internalType": "string",
          "name": "message",
          "type": "string"
        },
        {
          "internalType": "address",
          "name": "signer",
          "type": "address"
        },
        {
          "internalType": "bytes",
          "name": "signature",
          "type": "bytes"
        }
      ],
      "name": "isSeedValid",
      "outputs": [
        {
          "internalType": "bool",
          "name": "",
          "type": "bool"
        }
      ],
      "stateMutability": "view",
      "type": "function"
    }
  ],
  "bytecode": "0x608060405234801561001057600080fd5b506106fb806100206000396000f3fe608060405234801561001057600080fd5b506004361061002b5760003560e01c806343f61a5814610030575b600080fd5b61004a60048036038101906100459190610433565b610060565b60405161005791906104ed565b60405180910390f35b6000808585604051602001610076929190610596565b6040516020818303038152906040528051906020012090506000816040516020016100a1919061063e565b60405160208183030381529060405280519060200120905060006100c58286610103565b90508073ffffffffffffffffffffffffffffffffffffffff168673ffffffffffffffffffffffffffffffffffffffff16149350505050949350505050565b60008060008061011285610172565b9250925092506001868484846040516000815260200160405260405161013b9493929190610680565b6020604051602081039080840390855afa15801561015d573d6000803e3d6000fd5b50505060206040510351935050505092915050565b6000806000604184511461018557600080fd5b6020840151915060408401519050606084015160001a92509193909250565b6000604051905090565b600080fd5b600080fd5b6000819050919050565b6101cb816101b8565b81146101d657600080fd5b50565b6000813590506101e8816101c2565b92915050565b600080fd5b600080fd5b6000601f19601f8301169050919050565b7f4e487b7100000000000000000000000000000000000000000000000000000000600052604160045260246000fd5b610241826101f8565b810181811067ffffffffffffffff821117156102605761025f610209565b5b80604052505050565b60006102736101a4565b905061027f8282610238565b919050565b600067ffffffffffffffff82111561029f5761029e610209565b5b6102a8826101f8565b9050602081019050919050565b82818337600083830152505050565b60006102d76102d284610284565b610269565b9050828152602081018484840111156102f3576102f26101f3565b5b6102fe8482856102b5565b509392505050565b600082601f83011261031b5761031a6101ee565b5b813561032b8482602086016102c4565b91505092915050565b600073ffffffffffffffffffffffffffffffffffffffff82169050919050565b600061035f82610334565b9050919050565b61036f81610354565b811461037a57600080fd5b50565b60008135905061038c81610366565b92915050565b600067ffffffffffffffff8211156103ad576103ac610209565b5b6103b6826101f8565b9050602081019050919050565b60006103d66103d184610392565b610269565b9050828152602081018484840111156103f2576103f16101f3565b5b6103fd8482856102b5565b509392505050565b600082601f83011261041a576104196101ee565b5b813561042a8482602086016103c3565b91505092915050565b6000806000806080858703121561044d5761044c6101ae565b5b600061045b878288016101d9565b945050602085013567ffffffffffffffff81111561047c5761047b6101b3565b5b61048887828801610306565b93505060406104998782880161037d565b925050606085013567ffffffffffffffff8111156104ba576104b96101b3565b5b6104c687828801610405565b91505092959194509250565b60008115159050919050565b6104e7816104d2565b82525050565b600060208201905061050260008301846104de565b92915050565b610511816101b8565b82525050565b600081519050919050565b600082825260208201905092915050565b60005b83811015610551578082015181840152602081019050610536565b60008484015250505050565b600061056882610517565b6105728185610522565b9350610582818560208601610533565b61058b816101f8565b840191505092915050565b60006040820190506105ab6000830185610508565b81810360208301526105bd818461055d565b90509392505050565b600081905092915050565b7f19457468657265756d205369676e6564204d6573736167653a0a333200000000600082015250565b6000610607601c836105c6565b9150610612826105d1565b601c82019050919050565b6000819050919050565b610638610633826101b8565b61061d565b82525050565b6000610649826105fa565b91506106558284610627565b60208201915081905092915050565b600060ff82169050919050565b61067a81610664565b82525050565b60006080820190506106956000830187610508565b6106a26020830186610671565b6106af6040830185610508565b6106bc6060830184610508565b9594505050505056fea264697066735822122085c9ba023d504df10db9cbb02187c2f7ad4b9d285f286c04ebf20933d0b119c564736f6c63430008120033",
  "linkReferences": {},
  "deployedLinkReferences": {}
}