{
  "_format": "hh-sol-artifact-1",
  "contractName": "ZkTurk",
  "sourceName": "contracts/ZkTurk.sol",
  "abi": [
    {
      "inputs": [
        {
          "internalType": "uint256",
          "name": "_problemFee",
          "type": "uint256"
        },
        {
          "internalType": "uint256",
          "name": "_problemStake",
          "type": "uint256"
        },
        {
          "internalType": "bool",
          "name": "_useVerification",
          "type": "bool"
        },
        {
          "internalType": "contract IWorldID",
          "name": "_worldId",
          "type": "address"
        },
        {
          "internalType": "string",
          "name": "_appId",
          "type": "string"
        },
        {
          "internalType": "string",
          "name": "_actionId",
          "type": "string"
        }
      ],
      "stateMutability": "nonpayable",
      "type": "constructor"
    },
    {
      "inputs": [],
      "name": "InvalidNullifier",
      "type": "error"
    },
    {
      "anonymous": false,
      "inputs": [
        {
          "indexed": true,
          "internalType": "address",
          "name": "previousOwner",
          "type": "address"
        },
        {
          "indexed": true,
          "internalType": "address",
          "name": "newOwner",
          "type": "address"
        }
      ],
      "name": "OwnershipTransferred",
      "type": "event"
    },
    {
      "anonymous": false,
      "inputs": [
        {
          "indexed": false,
          "internalType": "uint256",
          "name": "_problemId",
          "type": "uint256"
        },
        {
          "indexed": false,
          "internalType": "uint256",
          "name": "_taskId",
          "type": "uint256"
        },
        {
          "indexed": false,
          "internalType": "bytes",
          "name": "_cipheredAnswer",
          "type": "bytes"
        },
        {
          "indexed": false,
          "internalType": "uint256",
          "name": "_answerId",
          "type": "uint256"
        }
      ],
      "name": "SolveProblem",
      "type": "event"
    },
    {
      "inputs": [],
      "name": "NO_KEY_FLAG",
      "outputs": [
        {
          "internalType": "string",
          "name": "",
          "type": "string"
        }
      ],
      "stateMutability": "view",
      "type": "function"
    },
    {
      "inputs": [
        {
          "internalType": "string",
          "name": "title",
          "type": "string"
        },
        {
          "internalType": "string",
          "name": "description",
          "type": "string"
        },
        {
          "internalType": "string[]",
          "name": "urlToImgs",
          "type": "string[]"
        },
        {
          "internalType": "string[]",
          "name": "asnwers",
          "type": "string[]"
        },
        {
          "internalType": "uint256",
          "name": "workersMax",
          "type": "uint256"
        },
        {
          "internalType": "uint256",
          "name": "taskPriceWei",
          "type": "uint256"
        },
        {
          "internalType": "uint256",
          "name": "answersMax",
          "type": "uint256"
        }
      ],
      "name": "addProblem",
      "outputs": [],
      "stateMutability": "payable",
      "type": "function"
    },
    {
      "inputs": [
        {
          "internalType": "uint256",
          "name": "problemId",
          "type": "uint256"
        }
      ],
      "name": "getProblem",
      "outputs": [
        {
          "components": [
            {
              "internalType": "uint256",
              "name": "id",
              "type": "uint256"
            },
            {
              "internalType": "address",
              "name": "owner",
              "type": "address"
            },
            {
              "internalType": "string",
              "name": "title",
              "type": "string"
            },
            {
              "internalType": "string",
              "name": "description",
              "type": "string"
            },
            {
              "internalType": "string[]",
              "name": "taskUrls",
              "type": "string[]"
            },
            {
              "internalType": "string[]",
              "name": "asnwers",
              "type": "string[]"
            },
            {
              "internalType": "uint256",
              "name": "workersMax",
              "type": "uint256"
            },
            {
              "internalType": "uint256",
              "name": "taskPriceWei",
              "type": "uint256"
            },
            {
              "internalType": "uint256",
              "name": "answersMax",
              "type": "uint256"
            }
          ],
          "internalType": "struct ZkTurk.Problem",
          "name": "",
          "type": "tuple"
        }
      ],
      "stateMutability": "view",
      "type": "function"
    },
    {
      "inputs": [
        {
          "internalType": "uint256",
          "name": "_problemId",
          "type": "uint256"
        }
      ],
      "name": "getProblemTasks",
      "outputs": [
        {
          "internalType": "string[]",
          "name": "",
          "type": "string[]"
        }
      ],
      "stateMutability": "view",
      "type": "function"
    },
    {
      "inputs": [],
      "name": "getProblems",
      "outputs": [
        {
          "components": [
            {
              "internalType": "uint256",
              "name": "id",
              "type": "uint256"
            },
            {
              "internalType": "address",
              "name": "owner",
              "type": "address"
            },
            {
              "internalType": "string",
              "name": "title",
              "type": "string"
            },
            {
              "internalType": "string",
              "name": "description",
              "type": "string"
            },
            {
              "internalType": "string[]",
              "name": "taskUrls",
              "type": "string[]"
            },
            {
              "internalType": "string[]",
              "name": "asnwers",
              "type": "string[]"
            },
            {
              "internalType": "uint256",
              "name": "workersMax",
              "type": "uint256"
            },
            {
              "internalType": "uint256",
              "name": "taskPriceWei",
              "type": "uint256"
            },
            {
              "internalType": "uint256",
              "name": "answersMax",
              "type": "uint256"
            }
          ],
          "internalType": "struct ZkTurk.Problem[]",
          "name": "",
          "type": "tuple[]"
        }
      ],
      "stateMutability": "view",
      "type": "function"
    },
    {
      "inputs": [],
      "name": "getTaskAnswers",
      "outputs": [
        {
          "components": [
            {
              "internalType": "uint256",
              "name": "problemId",
              "type": "uint256"
            },
            {
              "internalType": "uint256",
              "name": "taskId",
              "type": "uint256"
            },
            {
              "internalType": "address",
              "name": "worker",
              "type": "address"
            },
            {
              "internalType": "bytes",
              "name": "cipheredAnswer",
              "type": "bytes"
            },
            {
              "internalType": "string",
              "name": "answer",
              "type": "string"
            }
          ],
          "internalType": "struct ZkTurk.TaskAnswer[]",
          "name": "",
          "type": "tuple[]"
        }
      ],
      "stateMutability": "view",
      "type": "function"
    },
    {
      "inputs": [
        {
          "internalType": "address",
          "name": "worker",
          "type": "address"
        },
        {
          "internalType": "uint256",
          "name": "problemId",
          "type": "uint256"
        }
      ],
      "name": "getWorkerToProblemAnswerIds",
      "outputs": [
        {
          "internalType": "uint256[]",
          "name": "",
          "type": "uint256[]"
        }
      ],
      "stateMutability": "view",
      "type": "function"
    },
    {
      "inputs": [
        {
          "internalType": "string",
          "name": "answer",
          "type": "string"
        },
        {
          "internalType": "uint256",
          "name": "problemId",
          "type": "uint256"
        }
      ],
      "name": "isAnswerAllowed",
      "outputs": [
        {
          "internalType": "bool",
          "name": "",
          "type": "bool"
        }
      ],
      "stateMutability": "view",
      "type": "function"
    },
    {
      "inputs": [
        {
          "internalType": "bytes32",
          "name": "seed",
          "type": "bytes32"
        },
        {
          "internalType": "string",
          "name": "message",
          "type": "string"
        },
        {
          "internalType": "address",
          "name": "signer",
          "type": "address"
        },
        {
          "internalType": "bytes",
          "name": "signature",
          "type": "bytes"
        }
      ],
      "name": "isSeedValid",
      "outputs": [
        {
          "internalType": "bool",
          "name": "",
          "type": "bool"
        }
      ],
      "stateMutability": "view",
      "type": "function"
    },
    {
      "inputs": [
        {
          "internalType": "uint256",
          "name": "problemId",
          "type": "uint256"
        },
        {
          "internalType": "uint256",
          "name": "taskId",
          "type": "uint256"
        }
      ],
      "name": "isTaskNotAnsweredByWorker",
      "outputs": [
        {
          "internalType": "bool",
          "name": "",
          "type": "bool"
        }
      ],
      "stateMutability": "view",
      "type": "function"
    },
    {
      "inputs": [
        {
          "internalType": "uint256",
          "name": "problemId",
          "type": "uint256"
        },
        {
          "internalType": "address",
          "name": "signal",
          "type": "address"
        },
        {
          "internalType": "uint256",
          "name": "root",
          "type": "uint256"
        },
        {
          "internalType": "uint256",
          "name": "nullifierHash",
          "type": "uint256"
        },
        {
          "internalType": "uint256[8]",
          "name": "proof",
          "type": "uint256[8]"
        }
      ],
      "name": "joinProblem",
      "outputs": [],
      "stateMutability": "payable",
      "type": "function"
    },
    {
      "inputs": [],
      "name": "owner",
      "outputs": [
        {
          "internalType": "address",
          "name": "",
          "type": "address"
        }
      ],
      "stateMutability": "view",
      "type": "function"
    },
    {
      "inputs": [],
      "name": "problemFee",
      "outputs": [
        {
          "internalType": "uint256",
          "name": "",
          "type": "uint256"
        }
      ],
      "stateMutability": "view",
      "type": "function"
    },
    {
      "inputs": [],
      "name": "problemStake",
      "outputs": [
        {
          "internalType": "uint256",
          "name": "",
          "type": "uint256"
        }
      ],
      "stateMutability": "view",
      "type": "function"
    },
    {
      "inputs": [
        {
          "internalType": "uint256",
          "name": "problemId",
          "type": "uint256"
        },
        {
          "internalType": "uint256",
          "name": "",
          "type": "uint256"
        }
      ],
      "name": "problemToAnswers",
      "outputs": [
        {
          "internalType": "uint256",
          "name": "",
          "type": "uint256"
        }
      ],
      "stateMutability": "view",
      "type": "function"
    },
    {
      "inputs": [
        {
          "internalType": "uint256",
          "name": "",
          "type": "uint256"
        }
      ],
      "name": "problems",
      "outputs": [
        {
          "internalType": "uint256",
          "name": "id",
          "type": "uint256"
        },
        {
          "internalType": "address",
          "name": "owner",
          "type": "address"
        },
        {
          "internalType": "string",
          "name": "title",
          "type": "string"
        },
        {
          "internalType": "string",
          "name": "description",
          "type": "string"
        },
        {
          "internalType": "uint256",
          "name": "workersMax",
          "type": "uint256"
        },
        {
          "internalType": "uint256",
          "name": "taskPriceWei",
          "type": "uint256"
        },
        {
          "internalType": "uint256",
          "name": "answersMax",
          "type": "uint256"
        }
      ],
      "stateMutability": "view",
      "type": "function"
    },
    {
      "inputs": [],
      "name": "renounceOwnership",
      "outputs": [],
      "stateMutability": "nonpayable",
      "type": "function"
    },
    {
      "inputs": [],
      "name": "resetActiveProblem",
      "outputs": [],
      "stateMutability": "nonpayable",
      "type": "function"
    },
    {
      "inputs": [
        {
          "internalType": "bool",
          "name": "_state",
          "type": "bool"
        }
      ],
      "name": "setUseVerification",
      "outputs": [],
      "stateMutability": "nonpayable",
      "type": "function"
    },
    {
      "inputs": [
        {
          "internalType": "uint256",
          "name": "problemId",
          "type": "uint256"
        },
        {
          "internalType": "uint256",
          "name": "taskId",
          "type": "uint256"
        },
        {
          "internalType": "bytes",
          "name": "cipheredAnswer",
          "type": "bytes"
        }
      ],
      "name": "solveTask",
      "outputs": [
        {
          "internalType": "uint256",
          "name": "",
          "type": "uint256"
        }
      ],
      "stateMutability": "nonpayable",
      "type": "function"
    },
    {
      "inputs": [
        {
          "internalType": "uint256",
          "name": "",
          "type": "uint256"
        }
      ],
      "name": "taskAnswers",
      "outputs": [
        {
          "internalType": "uint256",
          "name": "problemId",
          "type": "uint256"
        },
        {
          "internalType": "uint256",
          "name": "taskId",
          "type": "uint256"
        },
        {
          "internalType": "address",
          "name": "worker",
          "type": "address"
        },
        {
          "internalType": "bytes",
          "name": "cipheredAnswer",
          "type": "bytes"
        },
        {
          "internalType": "string",
          "name": "answer",
          "type": "string"
        }
      ],
      "stateMutability": "view",
      "type": "function"
    },
    {
      "inputs": [
        {
          "internalType": "address",
          "name": "newOwner",
          "type": "address"
        }
      ],
      "name": "transferOwnership",
      "outputs": [],
      "stateMutability": "nonpayable",
      "type": "function"
    },
    {
      "inputs": [],
      "name": "useVerification",
      "outputs": [
        {
          "internalType": "bool",
          "name": "",
          "type": "bool"
        }
      ],
      "stateMutability": "view",
      "type": "function"
    },
    {
      "inputs": [
        {
          "internalType": "address",
          "name": "worker",
          "type": "address"
        },
        {
          "internalType": "uint256",
          "name": "problemId",
          "type": "uint256"
        },
        {
          "internalType": "uint256[]",
          "name": "taskAnswerIds",
          "type": "uint256[]"
        },
        {
          "internalType": "string[]",
          "name": "answers",
          "type": "string[]"
        },
        {
          "internalType": "bytes32",
          "name": "seedPhrase",
          "type": "bytes32"
        }
      ],
      "name": "withdrawAndDecipher",
      "outputs": [],
      "stateMutability": "nonpayable",
      "type": "function"
    },
    {
      "inputs": [
        {
          "internalType": "address",
          "name": "",
          "type": "address"
        }
      ],
      "name": "workerToProblem",
      "outputs": [
        {
          "internalType": "uint256",
          "name": "",
          "type": "uint256"
        }
      ],
      "stateMutability": "view",
      "type": "function"
    },
    {
      "inputs": [
        {
          "internalType": "address",
          "name": "",
          "type": "address"
        },
        {
          "internalType": "uint256",
          "name": "",
          "type": "uint256"
        },
        {
          "internalType": "uint256",
          "name": "",
          "type": "uint256"
        }
      ],
      "name": "workerToProblemAnswerIds",
      "outputs": [
        {
          "internalType": "uint256",
          "name": "",
          "type": "uint256"
        }
      ],
      "stateMutability": "view",
      "type": "function"
    }
  ],
  "bytecode": "0x6101206040526040518060400160405280600481526020017f6e6f6e6500000000000000000000000000000000000000000000000000000000815250600190816200004b91906200085d565b506001610100908152503480156200006257600080fd5b50604051620067ba380380620067ba833981810160405281019062000088919062000b8f565b620000a86200009c6200025860201b60201c565b6200026060201b60201c565b85608081815250508460a0818152505083600260006101000a81548160ff0219169083151502179055508273ffffffffffffffffffffffffffffffffffffffff1660c08173ffffffffffffffffffffffffffffffffffffffff168152505062000175620001418360405160200162000121919062000cab565b6040516020818303038152906040526200032460201b62002e2a1760201c565b826040516020016200015592919062000ce9565b6040516020818303038152906040526200032460201b62002e2a1760201c565b60e0818152505060006040518060400160405280600981526020017f446f674f724361743f000000000000000000000000000000000000000000000081525090506000600167ffffffffffffffff811115620001d657620001d5620005ee565b5b6040519080825280602002602001820160405280156200020b57816020015b6060815260200190600190039081620001f55790505b509050818160008151811062000226576200022562000d15565b5b60200260200101819052506200024a8283838460018060016200035d60201b60201c565b505050505050505062000daa565b600033905090565b60008060009054906101000a900473ffffffffffffffffffffffffffffffffffffffff169050816000806101000a81548173ffffffffffffffffffffffffffffffffffffffff021916908373ffffffffffffffffffffffffffffffffffffffff1602179055508173ffffffffffffffffffffffffffffffffffffffff168173ffffffffffffffffffffffffffffffffffffffff167f8be0079c531659141344cd1fd0a4f28419497f9722a3daafe3b4186f6b6457e060405160405180910390a35050565b60006008826040516020016200033b919062000d91565b6040516020818303038152906040528051906020012060001c901c9050919050565b600360405180610120016040528060038054905081526020013373ffffffffffffffffffffffffffffffffffffffff1681526020018981526020018881526020018781526020018681526020018581526020018481526020018381525090806001815401808255809150506001900390600052602060002090600902016000909190919091506000820151816000015560208201518160010160006101000a81548173ffffffffffffffffffffffffffffffffffffffff021916908373ffffffffffffffffffffffffffffffffffffffff16021790555060408201518160020190816200044b91906200085d565b5060608201518160030190816200046391906200085d565b50608082015181600401908051906020019062000482929190620004f6565b5060a0820151816005019080519060200190620004a1929190620004f6565b5060c0820151816006015560e082015181600701556101008201518160080155505060046000908060018154018082558091505060019003906000526020600020016000909190919091505550505050505050565b82805482825590600052602060002090810192821562000543579160200282015b82811115620005425782518290816200053191906200085d565b509160200191906001019062000517565b5b50905062000552919062000556565b5090565b5b808211156200057a57600081816200057091906200057e565b5060010162000557565b5090565b5080546200058c906200064c565b6000825580601f10620005a05750620005c1565b601f016020900490600052602060002090810190620005c09190620005c4565b5b50565b5b80821115620005df576000816000905550600101620005c5565b5090565b600081519050919050565b7f4e487b7100000000000000000000000000000000000000000000000000000000600052604160045260246000fd5b7f4e487b7100000000000000000000000000000000000000000000000000000000600052602260045260246000fd5b600060028204905060018216806200066557607f821691505b6020821081036200067b576200067a6200061d565b5b50919050565b60008190508160005260206000209050919050565b60006020601f8301049050919050565b600082821b905092915050565b600060088302620006e57fffffffffffffffffffffffffffffffffffffffffffffffffffffffffffffffff82620006a6565b620006f18683620006a6565b95508019841693508086168417925050509392505050565b6000819050919050565b6000819050919050565b60006200073e62000738620007328462000709565b62000713565b62000709565b9050919050565b6000819050919050565b6200075a836200071d565b62000772620007698262000745565b848454620006b3565b825550505050565b600090565b620007896200077a565b620007968184846200074f565b505050565b5b81811015620007be57620007b26000826200077f565b6001810190506200079c565b5050565b601f8211156200080d57620007d78162000681565b620007e28462000696565b81016020851015620007f2578190505b6200080a620008018562000696565b8301826200079b565b50505b505050565b600082821c905092915050565b6000620008326000198460080262000812565b1980831691505092915050565b60006200084d83836200081f565b9150826002028217905092915050565b6200086882620005e3565b67ffffffffffffffff811115620008845762000883620005ee565b5b6200089082546200064c565b6200089d828285620007c2565b600060209050601f831160018114620008d55760008415620008c0578287015190505b620008cc85826200083f565b8655506200093c565b601f198416620008e58662000681565b60005b828110156200090f57848901518255600182019150602085019450602081019050620008e8565b868310156200092f57848901516200092b601f8916826200081f565b8355505b6001600288020188555050505b505050505050565b6000604051905090565b600080fd5b600080fd5b620009638162000709565b81146200096f57600080fd5b50565b600081519050620009838162000958565b92915050565b60008115159050919050565b620009a08162000989565b8114620009ac57600080fd5b50565b600081519050620009c08162000995565b92915050565b600073ffffffffffffffffffffffffffffffffffffffff82169050919050565b6000620009f382620009c6565b9050919050565b600062000a0782620009e6565b9050919050565b62000a1981620009fa565b811462000a2557600080fd5b50565b60008151905062000a398162000a0e565b92915050565b600080fd5b600080fd5b6000601f19601f8301169050919050565b62000a658262000a49565b810181811067ffffffffffffffff8211171562000a875762000a86620005ee565b5b80604052505050565b600062000a9c62000944565b905062000aaa828262000a5a565b919050565b600067ffffffffffffffff82111562000acd5762000acc620005ee565b5b62000ad88262000a49565b9050602081019050919050565b60005b8381101562000b0557808201518184015260208101905062000ae8565b60008484015250505050565b600062000b2862000b228462000aaf565b62000a90565b90508281526020810184848401111562000b475762000b4662000a44565b5b62000b5484828562000ae5565b509392505050565b600082601f83011262000b745762000b7362000a3f565b5b815162000b8684826020860162000b11565b91505092915050565b60008060008060008060c0878903121562000baf5762000bae6200094e565b5b600062000bbf89828a0162000972565b965050602062000bd289828a0162000972565b955050604062000be589828a01620009af565b945050606062000bf889828a0162000a28565b935050608087015167ffffffffffffffff81111562000c1c5762000c1b62000953565b5b62000c2a89828a0162000b5c565b92505060a087015167ffffffffffffffff81111562000c4e5762000c4d62000953565b5b62000c5c89828a0162000b5c565b9150509295509295509295565b600081905092915050565b600062000c8182620005e3565b62000c8d818562000c69565b935062000c9f81856020860162000ae5565b80840191505092915050565b600062000cb9828462000c74565b915081905092915050565b6000819050919050565b62000ce362000cdd8262000709565b62000cc4565b82525050565b600062000cf7828562000cce565b60208201915062000d09828462000c74565b91508190509392505050565b7f4e487b7100000000000000000000000000000000000000000000000000000000600052603260045260246000fd5b600081519050919050565b600081905092915050565b600062000d678262000d44565b62000d73818562000d4f565b935062000d8581856020860162000ae5565b80840191505092915050565b600062000d9f828462000d5a565b915081905092915050565b60805160a05160c05160e051610100516159af62000e0b600039600061252b01526000612575015260006124ee0152600081816126280152612c0301526000818161121e015281816112e701528181611f80015261242201526159af6000f3fe6080604052600436106101815760003560e01c8063708988f2116100d1578063bf7952e21161008a578063d5ee9eb911610064578063d5ee9eb9146105c7578063db6cdf59146105e3578063eba4f3661461060e578063f2fde38b1461065157610181565b8063bf7952e214610524578063c30f00e014610561578063ca7dc46f1461059e57610181565b8063708988f2146103ea578063715018a6146104275780638da5cb5b1461043e5780639caada3f14610469578063ab1dc2bf146104a6578063bd0b6b79146104e357610181565b806335e57c511161013e5780634f52227f116101185780634f52227f1461034d578063560eccf414610378578063562c92a0146103a35780635ee3708a146103bf57610181565b806335e57c51146102bc57806342d15912146102e557806343f61a581461031057610181565b8063010d24461461018657806304092851146101c35780630c080b23146101ee57806317cbd5561461022b5780632889e0751461026857806330d876291461027f575b600080fd5b34801561019257600080fd5b506101ad60048036038101906101a89190613705565b61067a565b6040516101ba91906139ae565b60405180910390f35b3480156101cf57600080fd5b506101d8610a0b565b6040516101e59190613b64565b60405180910390f35b3480156101fa57600080fd5b5061021560048036038101906102109190613bb2565b610bf8565b6040516102229190613ca1565b60405180910390f35b34801561023757600080fd5b50610252600480360381019061024d9190613cc3565b610ca1565b60405161025f9190613d12565b60405180910390f35b34801561027457600080fd5b5061027d610cd2565b005b34801561028b57600080fd5b506102a660048036038101906102a19190613d2d565b610d62565b6040516102b39190613d12565b60405180910390f35b3480156102c857600080fd5b506102e360048036038101906102de9190613db8565b610da0565b005b3480156102f157600080fd5b506102fa610dc5565b6040516103079190613f81565b60405180910390f35b34801561031c57600080fd5b50610337600480360381019061033291906141af565b611179565b604051610344919061425d565b60405180910390f35b34801561035957600080fd5b5061036261121c565b60405161036f9190613d12565b60405180910390f35b34801561038457600080fd5b5061038d611240565b60405161039a91906142c2565b60405180910390f35b6103bd60048036038101906103b891906143ca565b6112ce565b005b3480156103cb57600080fd5b506103d461136a565b6040516103e1919061425d565b60405180910390f35b3480156103f657600080fd5b50610411600480360381019061040c9190613705565b61137d565b60405161041e9190614562565b60405180910390f35b34801561043357600080fd5b5061043c61147b565b005b34801561044a57600080fd5b5061045361148f565b6040516104609190614593565b60405180910390f35b34801561047557600080fd5b50610490600480360381019061048b91906145ae565b6114b8565b60405161049d9190613d12565b60405180910390f35b3480156104b257600080fd5b506104cd60048036038101906104c89190613cc3565b6114d0565b6040516104da919061425d565b60405180910390f35b3480156104ef57600080fd5b5061050a60048036038101906105059190613705565b61179b565b60405161051b959493929190614625565b60405180910390f35b34801561053057600080fd5b5061054b60048036038101906105469190614686565b611911565b604051610558919061425d565b60405180910390f35b34801561056d57600080fd5b50610588600480360381019061058391906146e2565b611ab1565b6040516105959190613d12565b60405180910390f35b3480156105aa57600080fd5b506105c560048036038101906105c09190614814565b611e85565b005b6105e160048036038101906105dc91906148e9565b61239d565b005b3480156105ef57600080fd5b506105f8612c01565b6040516106059190613d12565b60405180910390f35b34801561061a57600080fd5b5061063560048036038101906106309190613705565b612c25565b6040516106489796959493929190614965565b60405180910390f35b34801561065d57600080fd5b50610678600480360381019061067391906145ae565b612da7565b005b61068261357f565b60038281548110610696576106956149e2565b5b906000526020600020906009020160405180610120016040529081600082015481526020016001820160009054906101000a900473ffffffffffffffffffffffffffffffffffffffff1673ffffffffffffffffffffffffffffffffffffffff1673ffffffffffffffffffffffffffffffffffffffff16815260200160028201805461072090614a40565b80601f016020809104026020016040519081016040528092919081815260200182805461074c90614a40565b80156107995780601f1061076e57610100808354040283529160200191610799565b820191906000526020600020905b81548152906001019060200180831161077c57829003601f168201915b505050505081526020016003820180546107b290614a40565b80601f01602080910402602001604051908101604052809291908181526020018280546107de90614a40565b801561082b5780601f106108005761010080835404028352916020019161082b565b820191906000526020600020905b81548152906001019060200180831161080e57829003601f168201915b5050505050815260200160048201805480602002602001604051908101604052809291908181526020016000905b8282101561090557838290600052602060002001805461087890614a40565b80601f01602080910402602001604051908101604052809291908181526020018280546108a490614a40565b80156108f15780601f106108c6576101008083540402835291602001916108f1565b820191906000526020600020905b8154815290600101906020018083116108d457829003601f168201915b505050505081526020019060010190610859565b50505050815260200160058201805480602002602001604051908101604052809291908181526020016000905b828210156109de57838290600052602060002001805461095190614a40565b80601f016020809104026020016040519081016040528092919081815260200182805461097d90614a40565b80156109ca5780601f1061099f576101008083540402835291602001916109ca565b820191906000526020600020905b8154815290600101906020018083116109ad57829003601f168201915b505050505081526020019060010190610932565b50505050815260200160068201548152602001600782015481526020016008820154815250509050919050565b60606007805480602002602001604051908101604052809291908181526020016000905b82821015610bef57838290600052602060002090600502016040518060a001604052908160008201548152602001600182015481526020016002820160009054906101000a900473ffffffffffffffffffffffffffffffffffffffff1673ffffffffffffffffffffffffffffffffffffffff1673ffffffffffffffffffffffffffffffffffffffff168152602001600382018054610acc90614a40565b80601f0160208091040260200160405190810160405280929190818152602001828054610af890614a40565b8015610b455780601f10610b1a57610100808354040283529160200191610b45565b820191906000526020600020905b815481529060010190602001808311610b2857829003601f168201915b50505050508152602001600482018054610b5e90614a40565b80601f0160208091040260200160405190810160405280929190818152602001828054610b8a90614a40565b8015610bd75780601f10610bac57610100808354040283529160200191610bd7565b820191906000526020600020905b815481529060010190602001808311610bba57829003601f168201915b50505050508152505081526020019060010190610a2f565b50505050905090565b6060600960008473ffffffffffffffffffffffffffffffffffffffff1673ffffffffffffffffffffffffffffffffffffffff1681526020019081526020016000206000838152602001908152602001600020805480602002602001604051908101604052809291908181526020018280548015610c9457602002820191906000526020600020905b815481526020019060010190808311610c80575b5050505050905092915050565b60086020528160005260406000208181548110610cbd57600080fd5b90600052602060002001600091509150505481565b6000600560003373ffffffffffffffffffffffffffffffffffffffff1673ffffffffffffffffffffffffffffffffffffffff16815260200190815260200160002054905060008114610d5f57600160048281548110610d3457610d336149e2565b5b906000526020600020016000828254610d4d9190614aa0565b92505081905550610d5e8133612e61565b5b50565b60096020528260005260406000206020528160005260406000208181548110610d8a57600080fd5b9060005260206000200160009250925050505481565b610da8612eeb565b80600260006101000a81548160ff02191690831515021790555050565b60606003805480602002602001604051908101604052809291908181526020016000905b82821015611170578382906000526020600020906009020160405180610120016040529081600082015481526020016001820160009054906101000a900473ffffffffffffffffffffffffffffffffffffffff1673ffffffffffffffffffffffffffffffffffffffff1673ffffffffffffffffffffffffffffffffffffffff168152602001600282018054610e7d90614a40565b80601f0160208091040260200160405190810160405280929190818152602001828054610ea990614a40565b8015610ef65780601f10610ecb57610100808354040283529160200191610ef6565b820191906000526020600020905b815481529060010190602001808311610ed957829003601f168201915b50505050508152602001600382018054610f0f90614a40565b80601f0160208091040260200160405190810160405280929190818152602001828054610f3b90614a40565b8015610f885780601f10610f5d57610100808354040283529160200191610f88565b820191906000526020600020905b815481529060010190602001808311610f6b57829003601f168201915b5050505050815260200160048201805480602002602001604051908101604052809291908181526020016000905b82821015611062578382906000526020600020018054610fd590614a40565b80601f016020809104026020016040519081016040528092919081815260200182805461100190614a40565b801561104e5780601f106110235761010080835404028352916020019161104e565b820191906000526020600020905b81548152906001019060200180831161103157829003601f168201915b505050505081526020019060010190610fb6565b50505050815260200160058201805480602002602001604051908101604052809291908181526020016000905b8282101561113b5783829060005260206000200180546110ae90614a40565b80601f01602080910402602001604051908101604052809291908181526020018280546110da90614a40565b80156111275780601f106110fc57610100808354040283529160200191611127565b820191906000526020600020905b81548152906001019060200180831161110a57829003601f168201915b50505050508152602001906001019061108f565b505050508152602001600682015481526020016007820154815260200160088201548152505081526020019060010190610de9565b50505050905090565b600080858560405160200161118f929190614ae3565b6040516020818303038152906040528051906020012090506000816040516020016111ba9190614b8b565b60405160208183030381529060405280519060200120905060006111de8286612f69565b90508073ffffffffffffffffffffffffffffffffffffffff168673ffffffffffffffffffffffffffffffffffffffff16149350505050949350505050565b7f000000000000000000000000000000000000000000000000000000000000000081565b6001805461124d90614a40565b80601f016020809104026020016040519081016040528092919081815260200182805461127990614a40565b80156112c65780601f1061129b576101008083540402835291602001916112c6565b820191906000526020600020905b8154815290600101906020018083116112a957829003601f168201915b505050505081565b8183826112db9190614bb1565b6112e59190614bb1565b7f00000000000000000000000000000000000000000000000000000000000000006113109190614bf3565b341015611352576040517f08c379a000000000000000000000000000000000000000000000000000000000815260040161134990614c73565b60405180910390fd5b61136187878787878787612fd8565b50505050505050565b600260009054906101000a900460ff1681565b606060038281548110611393576113926149e2565b5b9060005260206000209060090201600401805480602002602001604051908101604052809291908181526020016000905b828210156114705783829060005260206000200180546113e390614a40565b80601f016020809104026020016040519081016040528092919081815260200182805461140f90614a40565b801561145c5780601f106114315761010080835404028352916020019161145c565b820191906000526020600020905b81548152906001019060200180831161143f57829003601f168201915b5050505050815260200190600101906113c4565b505050509050919050565b611483612eeb565b61148d6000613169565b565b60008060009054906101000a900473ffffffffffffffffffffffffffffffffffffffff16905090565b60056020528060005260406000206000915090505481565b600080600960003373ffffffffffffffffffffffffffffffffffffffff1673ffffffffffffffffffffffffffffffffffffffff168152602001908152602001600020600085815260200190815260200160002080548060200260200160405190810160405280929190818152602001828054801561156d57602002820191906000526020600020905b815481526020019060010190808311611559575b5050505050905060006001905060005b825181101561178f57600083828151811061159b5761159a6149e2565b5b602002602001015190506000600782815481106115bb576115ba6149e2565b5b90600052602060002090600502016040518060a001604052908160008201548152602001600182015481526020016002820160009054906101000a900473ffffffffffffffffffffffffffffffffffffffff1673ffffffffffffffffffffffffffffffffffffffff1673ffffffffffffffffffffffffffffffffffffffff16815260200160038201805461164e90614a40565b80601f016020809104026020016040519081016040528092919081815260200182805461167a90614a40565b80156116c75780601f1061169c576101008083540402835291602001916116c7565b820191906000526020600020905b8154815290600101906020018083116116aa57829003601f168201915b505050505081526020016004820180546116e090614a40565b80601f016020809104026020016040519081016040528092919081815260200182805461170c90614a40565b80156117595780601f1061172e57610100808354040283529160200191611759565b820191906000526020600020905b81548152906001019060200180831161173c57829003601f168201915b50505050508152505090508060200151870361177a5760009350505061178f565b5050808061178790614c93565b91505061157d565b50809250505092915050565b600781815481106117ab57600080fd5b90600052602060002090600502016000915090508060000154908060010154908060020160009054906101000a900473ffffffffffffffffffffffffffffffffffffffff169080600301805461180090614a40565b80601f016020809104026020016040519081016040528092919081815260200182805461182c90614a40565b80156118795780601f1061184e57610100808354040283529160200191611879565b820191906000526020600020905b81548152906001019060200180831161185c57829003601f168201915b50505050509080600401805461188e90614a40565b80601f01602080910402602001604051908101604052809291908181526020018280546118ba90614a40565b80156119075780601f106118dc57610100808354040283529160200191611907565b820191906000526020600020905b8154815290600101906020018083116118ea57829003601f168201915b5050505050905085565b6000600380549050821061195a576040517f08c379a000000000000000000000000000000000000000000000000000000000815260040161195190614d27565b60405180910390fd5b6000600383815481106119705761196f6149e2565b5b9060005260206000209060090201600501805480602002602001604051908101604052809291908181526020016000905b82821015611a4d5783829060005260206000200180546119c090614a40565b80601f01602080910402602001604051908101604052809291908181526020018280546119ec90614a40565b8015611a395780601f10611a0e57610100808354040283529160200191611a39565b820191906000526020600020905b815481529060010190602001808311611a1c57829003601f168201915b5050505050815260200190600101906119a1565b5050505090506000805b8251811015611aa557611a8486848381518110611a7757611a766149e2565b5b602002602001015161322d565b15611a925760019150611aa5565b8080611a9d90614c93565b915050611a57565b50809250505092915050565b600083600560003373ffffffffffffffffffffffffffffffffffffffff1673ffffffffffffffffffffffffffffffffffffffff1681526020019081526020016000205414611b34576040517f08c379a0000000000000000000000000000000000000000000000000000000008152600401611b2b90614db9565b60405180910390fd5b611b3e84846114d0565b611b7d576040517f08c379a0000000000000000000000000000000000000000000000000000000008152600401611b7490614e71565b60405180910390fd5b60038481548110611b9157611b906149e2565b5b90600052602060002090600902016008015460086000868152602001908152602001600020805490501115611bfb576040517f08c379a0000000000000000000000000000000000000000000000000000000008152600401611bf290614edd565b60405180910390fd5b60076040518060a001604052808681526020018581526020013373ffffffffffffffffffffffffffffffffffffffff16815260200184815260200160018054611c4390614a40565b80601f0160208091040260200160405190810160405280929190818152602001828054611c6f90614a40565b8015611cbc5780601f10611c9157610100808354040283529160200191611cbc565b820191906000526020600020905b815481529060010190602001808311611c9f57829003601f168201915b50505050508152509080600181540180825580915050600190039060005260206000209060050201600090919091909150600082015181600001556020820151816001015560408201518160020160006101000a81548173ffffffffffffffffffffffffffffffffffffffff021916908373ffffffffffffffffffffffffffffffffffffffff1602179055506060820151816003019081611d5d91906150a9565b506080820151816004019081611d7391906151d6565b50505060006001600780549050611d8a9190614aa0565b905060086000868152602001908152602001600020819080600181540180825580915050600190039060005260206000200160009091909190915055600960003373ffffffffffffffffffffffffffffffffffffffff1673ffffffffffffffffffffffffffffffffffffffff16815260200190815260200160002060008681526020019081526020016000208190806001815401808255809150506001900390600052602060002001600090919091909150557fb5cd67fd7313ad01a6e82290eb99de7faa95dfe9a1077736b229bc3ddca4918985858584604051611e7294939291906152a8565b60405180910390a1809150509392505050565b8251825114611ec9576040517f08c379a0000000000000000000000000000000000000000000000000000000008152600401611ec090615366565b60405180910390fd5b60005b8351811015611f35576000848281518110611eea57611ee96149e2565b5b602002602001015190506000848381518110611f0957611f086149e2565b5b60200260200101519050611f208888848488613286565b50508080611f2d90614c93565b915050611ecc565b50600080600660003373ffffffffffffffffffffffffffffffffffffffff1673ffffffffffffffffffffffffffffffffffffffff1681526020019081526020016000205414611fa2577f000000000000000000000000000000000000000000000000000000000000000090505b611fac8587612e61565b600060038681548110611fc257611fc16149e2565b5b906000526020600020906009020160405180610120016040529081600082015481526020016001820160009054906101000a900473ffffffffffffffffffffffffffffffffffffffff1673ffffffffffffffffffffffffffffffffffffffff1673ffffffffffffffffffffffffffffffffffffffff16815260200160028201805461204c90614a40565b80601f016020809104026020016040519081016040528092919081815260200182805461207890614a40565b80156120c55780601f1061209a576101008083540402835291602001916120c5565b820191906000526020600020905b8154815290600101906020018083116120a857829003601f168201915b505050505081526020016003820180546120de90614a40565b80601f016020809104026020016040519081016040528092919081815260200182805461210a90614a40565b80156121575780601f1061212c57610100808354040283529160200191612157565b820191906000526020600020905b81548152906001019060200180831161213a57829003601f168201915b5050505050815260200160048201805480602002602001604051908101604052809291908181526020016000905b828210156122315783829060005260206000200180546121a490614a40565b80601f01602080910402602001604051908101604052809291908181526020018280546121d090614a40565b801561221d5780601f106121f25761010080835404028352916020019161221d565b820191906000526020600020905b81548152906001019060200180831161220057829003601f168201915b505050505081526020019060010190612185565b50505050815260200160058201805480602002602001604051908101604052809291908181526020016000905b8282101561230a57838290600052602060002001805461227d90614a40565b80601f01602080910402602001604051908101604052809291908181526020018280546122a990614a40565b80156122f65780601f106122cb576101008083540402835291602001916122f6565b820191906000526020600020905b8154815290600101906020018083116122d957829003601f168201915b50505050508152602001906001019061225e565b505050508152602001600682015481526020016007820154815260200160088201548152505090508673ffffffffffffffffffffffffffffffffffffffff166108fc8260e00151865161235d9190614bb1565b846123689190614bf3565b9081150290604051600060405180830381858888f19350505050158015612393573d6000803e3d6000fd5b5050505050505050565b600260009054906101000a900460ff1615612626578373ffffffffffffffffffffffffffffffffffffffff163373ffffffffffffffffffffffffffffffffffffffff1614612420576040517f08c379a0000000000000000000000000000000000000000000000000000000008152600401612417906153f8565b60405180910390fd5b7f0000000000000000000000000000000000000000000000000000000000000000341015612483576040517f08c379a000000000000000000000000000000000000000000000000000000000815260040161247a90615464565b60405180910390fd5b600a6000838152602001908152602001600020600086815260200190815260200160002060009054906101000a900460ff16156124ec576040517f5d904cb200000000000000000000000000000000000000000000000000000000815260040160405180910390fd5b7f000000000000000000000000000000000000000000000000000000000000000073ffffffffffffffffffffffffffffffffffffffff16633bc778e3847f00000000000000000000000000000000000000000000000000000000000000006125728860405160200161255e91906154cc565b604051602081830303815290604052612e2a565b867f0000000000000000000000000000000000000000000000000000000000000000876040518763ffffffff1660e01b81526004016125b696959493929190615501565b600060405180830381600087803b1580156125d057600080fd5b505af11580156125e4573d6000803e3d6000fd5b505050506001600a6000848152602001908152602001600020600087815260200190815260200160002060006101000a81548160ff0219169083151502179055505b7f00000000000000000000000000000000000000000000000000000000000000003414612688576040517f08c379a000000000000000000000000000000000000000000000000000000000815260040161267f90614c73565b60405180910390fd5b60038054905085106126cf576040517f08c379a00000000000000000000000000000000000000000000000000000000081526004016126c690614d27565b60405180910390fd5b6000600386815481106126e5576126e46149e2565b5b906000526020600020906009020160405180610120016040529081600082015481526020016001820160009054906101000a900473ffffffffffffffffffffffffffffffffffffffff1673ffffffffffffffffffffffffffffffffffffffff1673ffffffffffffffffffffffffffffffffffffffff16815260200160028201805461276f90614a40565b80601f016020809104026020016040519081016040528092919081815260200182805461279b90614a40565b80156127e85780601f106127bd576101008083540402835291602001916127e8565b820191906000526020600020905b8154815290600101906020018083116127cb57829003601f168201915b5050505050815260200160038201805461280190614a40565b80601f016020809104026020016040519081016040528092919081815260200182805461282d90614a40565b801561287a5780601f1061284f5761010080835404028352916020019161287a565b820191906000526020600020905b81548152906001019060200180831161285d57829003601f168201915b5050505050815260200160048201805480602002602001604051908101604052809291908181526020016000905b828210156129545783829060005260206000200180546128c790614a40565b80601f01602080910402602001604051908101604052809291908181526020018280546128f390614a40565b80156129405780601f1061291557610100808354040283529160200191612940565b820191906000526020600020905b81548152906001019060200180831161292357829003601f168201915b5050505050815260200190600101906128a8565b50505050815260200160058201805480602002602001604051908101604052809291908181526020016000905b82821015612a2d5783829060005260206000200180546129a090614a40565b80601f01602080910402602001604051908101604052809291908181526020018280546129cc90614a40565b8015612a195780601f106129ee57610100808354040283529160200191612a19565b820191906000526020600020905b8154815290600101906020018083116129fc57829003601f168201915b505050505081526020019060010190612981565b505050508152602001600682015481526020016007820154815260200160088201548152505090508060c0015160048781548110612a6e57612a6d6149e2565b5b906000526020600020015410612ab9576040517f08c379a0000000000000000000000000000000000000000000000000000000008152600401612ab0906155af565b60405180910390fd5b6000600560003373ffffffffffffffffffffffffffffffffffffffff1673ffffffffffffffffffffffffffffffffffffffff1681526020019081526020016000205414612b3b576040517f08c379a0000000000000000000000000000000000000000000000000000000008152600401612b329061561b565b60405180910390fd5b85600560003373ffffffffffffffffffffffffffffffffffffffff1673ffffffffffffffffffffffffffffffffffffffff1681526020019081526020016000208190555085600660003373ffffffffffffffffffffffffffffffffffffffff1673ffffffffffffffffffffffffffffffffffffffff16815260200190815260200160002081905550600160048781548110612bd957612bd86149e2565b5b906000526020600020016000828254612bf29190614bf3565b92505081905550505050505050565b7f000000000000000000000000000000000000000000000000000000000000000081565b60038181548110612c3557600080fd5b90600052602060002090600902016000915090508060000154908060010160009054906101000a900473ffffffffffffffffffffffffffffffffffffffff1690806002018054612c8490614a40565b80601f0160208091040260200160405190810160405280929190818152602001828054612cb090614a40565b8015612cfd5780601f10612cd257610100808354040283529160200191612cfd565b820191906000526020600020905b815481529060010190602001808311612ce057829003601f168201915b505050505090806003018054612d1290614a40565b80601f0160208091040260200160405190810160405280929190818152602001828054612d3e90614a40565b8015612d8b5780601f10612d6057610100808354040283529160200191612d8b565b820191906000526020600020905b815481529060010190602001808311612d6e57829003601f168201915b5050505050908060060154908060070154908060080154905087565b612daf612eeb565b600073ffffffffffffffffffffffffffffffffffffffff168173ffffffffffffffffffffffffffffffffffffffff1603612e1e576040517f08c379a0000000000000000000000000000000000000000000000000000000008152600401612e15906156ad565b60405180910390fd5b612e2781613169565b50565b6000600882604051602001612e3f9190615709565b6040516020818303038152906040528051906020012060001c901c9050919050565b600560008273ffffffffffffffffffffffffffffffffffffffff1673ffffffffffffffffffffffffffffffffffffffff16815260200190815260200160002060009055600660008273ffffffffffffffffffffffffffffffffffffffff1673ffffffffffffffffffffffffffffffffffffffff168152602001908152602001600020600090555050565b612ef3613545565b73ffffffffffffffffffffffffffffffffffffffff16612f1161148f565b73ffffffffffffffffffffffffffffffffffffffff1614612f67576040517f08c379a0000000000000000000000000000000000000000000000000000000008152600401612f5e9061576c565b60405180910390fd5b565b600080600080612f788561354d565b92509250925060018684848460405160008152602001604052604051612fa194939291906157a8565b6020604051602081039080840390855afa158015612fc3573d6000803e3d6000fd5b50505060206040510351935050505092915050565b600360405180610120016040528060038054905081526020013373ffffffffffffffffffffffffffffffffffffffff1681526020018981526020018881526020018781526020018681526020018581526020018481526020018381525090806001815401808255809150506001900390600052602060002090600902016000909190919091506000820151816000015560208201518160010160006101000a81548173ffffffffffffffffffffffffffffffffffffffff021916908373ffffffffffffffffffffffffffffffffffffffff16021790555060408201518160020190816130c491906151d6565b5060608201518160030190816130da91906151d6565b5060808201518160040190805190602001906130f79291906135e1565b5060a08201518160050190805190602001906131149291906135e1565b5060c0820151816006015560e082015181600701556101008201518160080155505060046000908060018154018082558091505060019003906000526020600020016000909190919091505550505050505050565b60008060009054906101000a900473ffffffffffffffffffffffffffffffffffffffff169050816000806101000a81548173ffffffffffffffffffffffffffffffffffffffff021916908373ffffffffffffffffffffffffffffffffffffffff1602179055508173ffffffffffffffffffffffffffffffffffffffff168173ffffffffffffffffffffffffffffffffffffffff167f8be0079c531659141344cd1fd0a4f28419497f9722a3daafe3b4186f6b6457e060405160405180910390a35050565b600081604051602001613240919061581e565b6040516020818303038152906040528051906020012083604051602001613267919061581e565b6040516020818303038152906040528051906020012014905092915050565b6132908285611911565b6132cf576040517f08c379a00000000000000000000000000000000000000000000000000000000081526004016132c690615881565b60405180910390fd5b6000600784815481106132e5576132e46149e2565b5b9060005260206000209060050201905061341581600401805461330790614a40565b80601f016020809104026020016040519081016040528092919081815260200182805461333390614a40565b80156133805780601f1061335557610100808354040283529160200191613380565b820191906000526020600020905b81548152906001019060200180831161336357829003601f168201915b50505050506001805461339290614a40565b80601f01602080910402602001604051908101604052809291908181526020018280546133be90614a40565b801561340b5780601f106133e05761010080835404028352916020019161340b565b820191906000526020600020905b8154815290600101906020018083116133ee57829003601f168201915b505050505061322d565b613454576040517f08c379a000000000000000000000000000000000000000000000000000000000815260040161344b906158ed565b60405180910390fd5b6134ec82848884600301805461346990614a40565b80601f016020809104026020016040519081016040528092919081815260200182805461349590614a40565b80156134e25780601f106134b7576101008083540402835291602001916134e2565b820191906000526020600020905b8154815290600101906020018083116134c557829003601f168201915b5050505050611179565b61352b576040517f08c379a000000000000000000000000000000000000000000000000000000000815260040161352290615959565b60405180910390fd5b8281600401908161353c91906151d6565b50505050505050565b600033905090565b6000806000604184511461356057600080fd5b6020840151915060408401519050606084015160001a92509193909250565b60405180610120016040528060008152602001600073ffffffffffffffffffffffffffffffffffffffff168152602001606081526020016060815260200160608152602001606081526020016000815260200160008152602001600081525090565b828054828255906000526020600020908101928215613629579160200282015b8281111561362857825182908161361891906151d6565b5091602001919060010190613601565b5b509050613636919061363a565b5090565b5b8082111561365a5760008181613651919061365e565b5060010161363b565b5090565b50805461366a90614a40565b6000825580601f1061367c575061369b565b601f01602090049060005260206000209081019061369a919061369e565b5b50565b5b808211156136b757600081600090555060010161369f565b5090565b6000604051905090565b600080fd5b600080fd5b6000819050919050565b6136e2816136cf565b81146136ed57600080fd5b50565b6000813590506136ff816136d9565b92915050565b60006020828403121561371b5761371a6136c5565b5b6000613729848285016136f0565b91505092915050565b61373b816136cf565b82525050565b600073ffffffffffffffffffffffffffffffffffffffff82169050919050565b600061376c82613741565b9050919050565b61377c81613761565b82525050565b600081519050919050565b600082825260208201905092915050565b60005b838110156137bc5780820151818401526020810190506137a1565b60008484015250505050565b6000601f19601f8301169050919050565b60006137e482613782565b6137ee818561378d565b93506137fe81856020860161379e565b613807816137c8565b840191505092915050565b600081519050919050565b600082825260208201905092915050565b6000819050602082019050919050565b600061384a83836137d9565b905092915050565b6000602082019050919050565b600061386a82613812565b613874818561381d565b9350836020820285016138868561382e565b8060005b858110156138c257848403895281516138a3858261383e565b94506138ae83613852565b925060208a0199505060018101905061388a565b50829750879550505050505092915050565b6000610120830160008301516138ed6000860182613732565b5060208301516139006020860182613773565b506040830151848203604086015261391882826137d9565b9150506060830151848203606086015261393282826137d9565b9150506080830151848203608086015261394c828261385f565b91505060a083015184820360a0860152613966828261385f565b91505060c083015161397b60c0860182613732565b5060e083015161398e60e0860182613732565b506101008301516139a3610100860182613732565b508091505092915050565b600060208201905081810360008301526139c881846138d4565b905092915050565b600081519050919050565b600082825260208201905092915050565b6000819050602082019050919050565b600081519050919050565b600082825260208201905092915050565b6000613a23826139fc565b613a2d8185613a07565b9350613a3d81856020860161379e565b613a46816137c8565b840191505092915050565b600060a083016000830151613a696000860182613732565b506020830151613a7c6020860182613732565b506040830151613a8f6040860182613773565b5060608301518482036060860152613aa78282613a18565b91505060808301518482036080860152613ac182826137d9565b9150508091505092915050565b6000613ada8383613a51565b905092915050565b6000602082019050919050565b6000613afa826139d0565b613b0481856139db565b935083602082028501613b16856139ec565b8060005b85811015613b525784840389528151613b338582613ace565b9450613b3e83613ae2565b925060208a01995050600181019050613b1a565b50829750879550505050505092915050565b60006020820190508181036000830152613b7e8184613aef565b905092915050565b613b8f81613761565b8114613b9a57600080fd5b50565b600081359050613bac81613b86565b92915050565b60008060408385031215613bc957613bc86136c5565b5b6000613bd785828601613b9d565b9250506020613be8858286016136f0565b9150509250929050565b600081519050919050565b600082825260208201905092915050565b6000819050602082019050919050565b6000613c2a8383613732565b60208301905092915050565b6000602082019050919050565b6000613c4e82613bf2565b613c588185613bfd565b9350613c6383613c0e565b8060005b83811015613c94578151613c7b8882613c1e565b9750613c8683613c36565b925050600181019050613c67565b5085935050505092915050565b60006020820190508181036000830152613cbb8184613c43565b905092915050565b60008060408385031215613cda57613cd96136c5565b5b6000613ce8858286016136f0565b9250506020613cf9858286016136f0565b9150509250929050565b613d0c816136cf565b82525050565b6000602082019050613d276000830184613d03565b92915050565b600080600060608486031215613d4657613d456136c5565b5b6000613d5486828701613b9d565b9350506020613d65868287016136f0565b9250506040613d76868287016136f0565b9150509250925092565b60008115159050919050565b613d9581613d80565b8114613da057600080fd5b50565b600081359050613db281613d8c565b92915050565b600060208284031215613dce57613dcd6136c5565b5b6000613ddc84828501613da3565b91505092915050565b600081519050919050565b600082825260208201905092915050565b6000819050602082019050919050565b600061012083016000830151613e2a6000860182613732565b506020830151613e3d6020860182613773565b5060408301518482036040860152613e5582826137d9565b91505060608301518482036060860152613e6f82826137d9565b91505060808301518482036080860152613e89828261385f565b91505060a083015184820360a0860152613ea3828261385f565b91505060c0830151613eb860c0860182613732565b5060e0830151613ecb60e0860182613732565b50610100830151613ee0610100860182613732565b508091505092915050565b6000613ef78383613e11565b905092915050565b6000602082019050919050565b6000613f1782613de5565b613f218185613df0565b935083602082028501613f3385613e01565b8060005b85811015613f6f5784840389528151613f508582613eeb565b9450613f5b83613eff565b925060208a01995050600181019050613f37565b50829750879550505050505092915050565b60006020820190508181036000830152613f9b8184613f0c565b905092915050565b6000819050919050565b613fb681613fa3565b8114613fc157600080fd5b50565b600081359050613fd381613fad565b92915050565b600080fd5b600080fd5b7f4e487b7100000000000000000000000000000000000000000000000000000000600052604160045260246000fd5b61401b826137c8565b810181811067ffffffffffffffff8211171561403a57614039613fe3565b5b80604052505050565b600061404d6136bb565b90506140598282614012565b919050565b600067ffffffffffffffff82111561407957614078613fe3565b5b614082826137c8565b9050602081019050919050565b82818337600083830152505050565b60006140b16140ac8461405e565b614043565b9050828152602081018484840111156140cd576140cc613fde565b5b6140d884828561408f565b509392505050565b600082601f8301126140f5576140f4613fd9565b5b813561410584826020860161409e565b91505092915050565b600067ffffffffffffffff82111561412957614128613fe3565b5b614132826137c8565b9050602081019050919050565b600061415261414d8461410e565b614043565b90508281526020810184848401111561416e5761416d613fde565b5b61417984828561408f565b509392505050565b600082601f83011261419657614195613fd9565b5b81356141a684826020860161413f565b91505092915050565b600080600080608085870312156141c9576141c86136c5565b5b60006141d787828801613fc4565b945050602085013567ffffffffffffffff8111156141f8576141f76136ca565b5b614204878288016140e0565b935050604061421587828801613b9d565b925050606085013567ffffffffffffffff811115614236576142356136ca565b5b61424287828801614181565b91505092959194509250565b61425781613d80565b82525050565b6000602082019050614272600083018461424e565b92915050565b600082825260208201905092915050565b600061429482613782565b61429e8185614278565b93506142ae81856020860161379e565b6142b7816137c8565b840191505092915050565b600060208201905081810360008301526142dc8184614289565b905092915050565b600067ffffffffffffffff8211156142ff576142fe613fe3565b5b602082029050602081019050919050565b600080fd5b6000614328614323846142e4565b614043565b9050808382526020820190506020840283018581111561434b5761434a614310565b5b835b8181101561439257803567ffffffffffffffff8111156143705761436f613fd9565b5b80860161437d89826140e0565b8552602085019450505060208101905061434d565b5050509392505050565b600082601f8301126143b1576143b0613fd9565b5b81356143c1848260208601614315565b91505092915050565b600080600080600080600060e0888a0312156143e9576143e86136c5565b5b600088013567ffffffffffffffff811115614407576144066136ca565b5b6144138a828b016140e0565b975050602088013567ffffffffffffffff811115614434576144336136ca565b5b6144408a828b016140e0565b965050604088013567ffffffffffffffff811115614461576144606136ca565b5b61446d8a828b0161439c565b955050606088013567ffffffffffffffff81111561448e5761448d6136ca565b5b61449a8a828b0161439c565b94505060806144ab8a828b016136f0565b93505060a06144bc8a828b016136f0565b92505060c06144cd8a828b016136f0565b91505092959891949750929550565b600082825260208201905092915050565b60006144f882613812565b61450281856144dc565b9350836020820285016145148561382e565b8060005b858110156145505784840389528151614531858261383e565b945061453c83613852565b925060208a01995050600181019050614518565b50829750879550505050505092915050565b6000602082019050818103600083015261457c81846144ed565b905092915050565b61458d81613761565b82525050565b60006020820190506145a86000830184614584565b92915050565b6000602082840312156145c4576145c36136c5565b5b60006145d284828501613b9d565b91505092915050565b600082825260208201905092915050565b60006145f7826139fc565b61460181856145db565b935061461181856020860161379e565b61461a816137c8565b840191505092915050565b600060a08201905061463a6000830188613d03565b6146476020830187613d03565b6146546040830186614584565b818103606083015261466681856145ec565b9050818103608083015261467a8184614289565b90509695505050505050565b6000806040838503121561469d5761469c6136c5565b5b600083013567ffffffffffffffff8111156146bb576146ba6136ca565b5b6146c7858286016140e0565b92505060206146d8858286016136f0565b9150509250929050565b6000806000606084860312156146fb576146fa6136c5565b5b6000614709868287016136f0565b935050602061471a868287016136f0565b925050604084013567ffffffffffffffff81111561473b5761473a6136ca565b5b61474786828701614181565b9150509250925092565b600067ffffffffffffffff82111561476c5761476b613fe3565b5b602082029050602081019050919050565b600061479061478b84614751565b614043565b905080838252602082019050602084028301858111156147b3576147b2614310565b5b835b818110156147dc57806147c888826136f0565b8452602084019350506020810190506147b5565b5050509392505050565b600082601f8301126147fb576147fa613fd9565b5b813561480b84826020860161477d565b91505092915050565b600080600080600060a086880312156148305761482f6136c5565b5b600061483e88828901613b9d565b955050602061484f888289016136f0565b945050604086013567ffffffffffffffff8111156148705761486f6136ca565b5b61487c888289016147e6565b935050606086013567ffffffffffffffff81111561489d5761489c6136ca565b5b6148a98882890161439c565b92505060806148ba88828901613fc4565b9150509295509295909350565b6000819050826020600802820111156148e3576148e2614310565b5b92915050565b60008060008060006101808688031215614906576149056136c5565b5b6000614914888289016136f0565b955050602061492588828901613b9d565b9450506040614936888289016136f0565b9350506060614947888289016136f0565b9250506080614958888289016148c7565b9150509295509295909350565b600060e08201905061497a600083018a613d03565b6149876020830189614584565b81810360408301526149998188614289565b905081810360608301526149ad8187614289565b90506149bc6080830186613d03565b6149c960a0830185613d03565b6149d660c0830184613d03565b98975050505050505050565b7f4e487b7100000000000000000000000000000000000000000000000000000000600052603260045260246000fd5b7f4e487b7100000000000000000000000000000000000000000000000000000000600052602260045260246000fd5b60006002820490506001821680614a5857607f821691505b602082108103614a6b57614a6a614a11565b5b50919050565b7f4e487b7100000000000000000000000000000000000000000000000000000000600052601160045260246000fd5b6000614aab826136cf565b9150614ab6836136cf565b9250828203905081811115614ace57614acd614a71565b5b92915050565b614add81613fa3565b82525050565b6000604082019050614af86000830185614ad4565b8181036020830152614b0a8184614289565b90509392505050565b600081905092915050565b7f19457468657265756d205369676e6564204d6573736167653a0a333200000000600082015250565b6000614b54601c83614b13565b9150614b5f82614b1e565b601c82019050919050565b6000819050919050565b614b85614b8082613fa3565b614b6a565b82525050565b6000614b9682614b47565b9150614ba28284614b74565b60208201915081905092915050565b6000614bbc826136cf565b9150614bc7836136cf565b9250828202614bd5816136cf565b91508282048414831517614bec57614beb614a71565b5b5092915050565b6000614bfe826136cf565b9150614c09836136cf565b9250828201905080821115614c2157614c20614a71565b5b92915050565b7f4e6f7420456e6f756768204574682e0000000000000000000000000000000000600082015250565b6000614c5d600f83614278565b9150614c6882614c27565b602082019050919050565b60006020820190508181036000830152614c8c81614c50565b9050919050565b6000614c9e826136cf565b91507fffffffffffffffffffffffffffffffffffffffffffffffffffffffffffffffff8203614cd057614ccf614a71565b5b600182019050919050565b7f50726f626c656d20646f6573206e6f742065786973742e000000000000000000600082015250565b6000614d11601783614278565b9150614d1c82614cdb565b602082019050919050565b60006020820190508181036000830152614d4081614d04565b9050919050565b7f55736572206973206e6f74206a6f696e656420746f207468652070726f626c6560008201527f6d2e000000000000000000000000000000000000000000000000000000000000602082015250565b6000614da3602283614278565b9150614dae82614d47565b604082019050919050565b60006020820190508181036000830152614dd281614d96565b9050919050565b7f536f6c766520746865207461736b207468617420616c726561647920736f6c7660008201527f6564206279207468652073616d6520757365722069732070726f68696265747460208201527f65642e0000000000000000000000000000000000000000000000000000000000604082015250565b6000614e5b604383614278565b9150614e6682614dd9565b606082019050919050565b60006020820190508181036000830152614e8a81614e4e565b9050919050565b7f4d617820616e7377657273207375626d69747465642e00000000000000000000600082015250565b6000614ec7601683614278565b9150614ed282614e91565b602082019050919050565b60006020820190508181036000830152614ef681614eba565b9050919050565b60008190508160005260206000209050919050565b60006020601f8301049050919050565b600082821b905092915050565b600060088302614f5f7fffffffffffffffffffffffffffffffffffffffffffffffffffffffffffffffff82614f22565b614f698683614f22565b95508019841693508086168417925050509392505050565b6000819050919050565b6000614fa6614fa1614f9c846136cf565b614f81565b6136cf565b9050919050565b6000819050919050565b614fc083614f8b565b614fd4614fcc82614fad565b848454614f2f565b825550505050565b600090565b614fe9614fdc565b614ff4818484614fb7565b505050565b5b818110156150185761500d600082614fe1565b600181019050614ffa565b5050565b601f82111561505d5761502e81614efd565b61503784614f12565b81016020851015615046578190505b61505a61505285614f12565b830182614ff9565b50505b505050565b600082821c905092915050565b600061508060001984600802615062565b1980831691505092915050565b6000615099838361506f565b9150826002028217905092915050565b6150b2826139fc565b67ffffffffffffffff8111156150cb576150ca613fe3565b5b6150d58254614a40565b6150e082828561501c565b600060209050601f8311600181146151135760008415615101578287015190505b61510b858261508d565b865550615173565b601f19841661512186614efd565b60005b8281101561514957848901518255600182019150602085019450602081019050615124565b868310156151665784890151615162601f89168261506f565b8355505b6001600288020188555050505b505050505050565b60008190508160005260206000209050919050565b601f8211156151d1576151a28161517b565b6151ab84614f12565b810160208510156151ba578190505b6151ce6151c685614f12565b830182614ff9565b50505b505050565b6151df82613782565b67ffffffffffffffff8111156151f8576151f7613fe3565b5b6152028254614a40565b61520d828285615190565b600060209050601f831160018114615240576000841561522e578287015190505b615238858261508d565b8655506152a0565b601f19841661524e8661517b565b60005b8281101561527657848901518255600182019150602085019450602081019050615251565b86831015615293578489015161528f601f89168261506f565b8355505b6001600288020188555050505b505050505050565b60006080820190506152bd6000830187613d03565b6152ca6020830186613d03565b81810360408301526152dc81856145ec565b90506152eb6060830184613d03565b95945050505050565b7f4c656e677468206f6620616e737765727320616e64207461736b416e7377657260008201527f49647320617265206e6f7420657175616c2e0000000000000000000000000000602082015250565b6000615350603283614278565b915061535b826152f4565b604082019050919050565b6000602082019050818103600083015261537f81615343565b9050919050565b7f536f6d656f6e6520697320747279696e6720746f207573652070726f6f66206660008201527f6f7220616e6f7468657220757365722e00000000000000000000000000000000602082015250565b60006153e2603083614278565b91506153ed82615386565b604082019050919050565b60006020820190508181036000830152615411816153d5565b9050919050565b7f4e6f7420656e6f7567682076616c75652e000000000000000000000000000000600082015250565b600061544e601183614278565b915061545982615418565b602082019050919050565b6000602082019050818103600083015261547d81615441565b9050919050565b60008160601b9050919050565b600061549c82615484565b9050919050565b60006154ae82615491565b9050919050565b6154c66154c182613761565b6154a3565b82525050565b60006154d882846154b5565b60148201915081905092915050565b82818337505050565b6154fd61010083836154e7565b5050565b60006101a0820190506155176000830189613d03565b6155246020830188613d03565b6155316040830187613d03565b61553e6060830186613d03565b61554b6080830185613d03565b61555860a08301846154f0565b979650505050505050565b7f576f726b657273206c696d697420726561636865642e00000000000000000000600082015250565b6000615599601683614278565b91506155a482615563565b602082019050919050565b600060208201905081810360008301526155c88161558c565b9050919050565b7f416c726561647920696e207468652070726f626c656d2e000000000000000000600082015250565b6000615605601783614278565b9150615610826155cf565b602082019050919050565b60006020820190508181036000830152615634816155f8565b9050919050565b7f4f776e61626c653a206e6577206f776e657220697320746865207a65726f206160008201527f6464726573730000000000000000000000000000000000000000000000000000602082015250565b6000615697602683614278565b91506156a28261563b565b604082019050919050565b600060208201905081810360008301526156c68161568a565b9050919050565b600081905092915050565b60006156e3826139fc565b6156ed81856156cd565b93506156fd81856020860161379e565b80840191505092915050565b600061571582846156d8565b915081905092915050565b7f4f776e61626c653a2063616c6c6572206973206e6f7420746865206f776e6572600082015250565b6000615756602083614278565b915061576182615720565b602082019050919050565b6000602082019050818103600083015261578581615749565b9050919050565b600060ff82169050919050565b6157a28161578c565b82525050565b60006080820190506157bd6000830187614ad4565b6157ca6020830186615799565b6157d76040830185614ad4565b6157e46060830184614ad4565b95945050505050565b60006157f882613782565b6158028185614b13565b935061581281856020860161379e565b80840191505092915050565b600061582a82846157ed565b915081905092915050565b7f416e73776572206576656e206973206e6f7420616c6c6f7765642e0000000000600082015250565b600061586b601b83614278565b915061587682615835565b602082019050919050565b6000602082019050818103600083015261589a8161585e565b9050919050565b7f416c7265616479206465636970686572656420616e737765722e000000000000600082015250565b60006158d7601a83614278565b91506158e2826158a1565b602082019050919050565b60006020820190508181036000830152615906816158ca565b9050919050565b7f5369676e6174757265206f722073656564206973206e6f742076616c69642e00600082015250565b6000615943601f83614278565b915061594e8261590d565b602082019050919050565b6000602082019050818103600083015261597281615936565b905091905056fea2646970667358221220e693b486291848eea746a3cb55059dccfab3fef621025e7320cdf7ffa08d6fe264736f6c63430008120033",
  "linkReferences": {},
  "deployedLinkReferences": {}
}