{
  "_format": "hh-sol-artifact-1",
  "contractName": "ZkTurk",
  "sourceName": "contracts/ZkTurk.sol",
  "abi": [
    {
      "inputs": [
        {
          "internalType": "uint256",
          "name": "_problemFee",
          "type": "uint256"
        },
        {
          "internalType": "uint256",
          "name": "_problemStake",
          "type": "uint256"
        },
        {
          "internalType": "bool",
          "name": "_useVerification",
          "type": "bool"
        },
        {
          "internalType": "contract IWorldID",
          "name": "_worldId",
          "type": "address"
        },
        {
          "internalType": "string",
          "name": "_appId",
          "type": "string"
        },
        {
          "internalType": "string",
          "name": "_actionId",
          "type": "string"
        }
      ],
      "stateMutability": "nonpayable",
      "type": "constructor"
    },
    {
      "inputs": [],
      "name": "InvalidNullifier",
      "type": "error"
    },
    {
      "anonymous": false,
      "inputs": [
        {
          "indexed": true,
          "internalType": "address",
          "name": "previousOwner",
          "type": "address"
        },
        {
          "indexed": true,
          "internalType": "address",
          "name": "newOwner",
          "type": "address"
        }
      ],
      "name": "OwnershipTransferred",
      "type": "event"
    },
    {
      "anonymous": false,
      "inputs": [
        {
          "indexed": false,
          "internalType": "uint256",
          "name": "_problemId",
          "type": "uint256"
        },
        {
          "indexed": false,
          "internalType": "uint256",
          "name": "_taskId",
          "type": "uint256"
        },
        {
          "indexed": false,
          "internalType": "bytes",
          "name": "_cipheredAnswer",
          "type": "bytes"
        },
        {
          "indexed": false,
          "internalType": "uint256",
          "name": "_answerId",
          "type": "uint256"
        }
      ],
      "name": "SolveProblem",
      "type": "event"
    },
    {
      "inputs": [],
      "name": "NO_KEY_FLAG",
      "outputs": [
        {
          "internalType": "string",
          "name": "",
          "type": "string"
        }
      ],
      "stateMutability": "view",
      "type": "function"
    },
    {
      "inputs": [
        {
          "internalType": "string",
          "name": "title",
          "type": "string"
        },
        {
          "internalType": "string",
          "name": "description",
          "type": "string"
        },
        {
          "internalType": "string[]",
          "name": "urlToImgs",
          "type": "string[]"
        },
        {
          "internalType": "string[]",
          "name": "asnwers",
          "type": "string[]"
        },
        {
          "internalType": "uint256",
          "name": "workersMax",
          "type": "uint256"
        },
        {
          "internalType": "uint256",
          "name": "taskPriceWei",
          "type": "uint256"
        },
        {
          "internalType": "uint256",
          "name": "answersMax",
          "type": "uint256"
        }
      ],
      "name": "addProblem",
      "outputs": [],
      "stateMutability": "payable",
      "type": "function"
    },
    {
      "inputs": [
        {
          "internalType": "uint256",
          "name": "problemId",
          "type": "uint256"
        }
      ],
      "name": "getProblem",
      "outputs": [
        {
          "components": [
            {
              "internalType": "uint256",
              "name": "id",
              "type": "uint256"
            },
            {
              "internalType": "address",
              "name": "owner",
              "type": "address"
            },
            {
              "internalType": "string",
              "name": "title",
              "type": "string"
            },
            {
              "internalType": "string",
              "name": "description",
              "type": "string"
            },
            {
              "internalType": "string[]",
              "name": "taskUrls",
              "type": "string[]"
            },
            {
              "internalType": "string[]",
              "name": "asnwers",
              "type": "string[]"
            },
            {
              "internalType": "uint256",
              "name": "workersMax",
              "type": "uint256"
            },
            {
              "internalType": "uint256",
              "name": "taskPriceWei",
              "type": "uint256"
            },
            {
              "internalType": "uint256",
              "name": "answersMax",
              "type": "uint256"
            }
          ],
          "internalType": "struct ZkTurk.Problem",
          "name": "",
          "type": "tuple"
        }
      ],
      "stateMutability": "view",
      "type": "function"
    },
    {
      "inputs": [
        {
          "internalType": "uint256",
          "name": "_problemId",
          "type": "uint256"
        }
      ],
      "name": "getProblemTasks",
      "outputs": [
        {
          "internalType": "string[]",
          "name": "",
          "type": "string[]"
        }
      ],
      "stateMutability": "view",
      "type": "function"
    },
    {
      "inputs": [],
      "name": "getProblems",
      "outputs": [
        {
          "components": [
            {
              "internalType": "uint256",
              "name": "id",
              "type": "uint256"
            },
            {
              "internalType": "address",
              "name": "owner",
              "type": "address"
            },
            {
              "internalType": "string",
              "name": "title",
              "type": "string"
            },
            {
              "internalType": "string",
              "name": "description",
              "type": "string"
            },
            {
              "internalType": "string[]",
              "name": "taskUrls",
              "type": "string[]"
            },
            {
              "internalType": "string[]",
              "name": "asnwers",
              "type": "string[]"
            },
            {
              "internalType": "uint256",
              "name": "workersMax",
              "type": "uint256"
            },
            {
              "internalType": "uint256",
              "name": "taskPriceWei",
              "type": "uint256"
            },
            {
              "internalType": "uint256",
              "name": "answersMax",
              "type": "uint256"
            }
          ],
          "internalType": "struct ZkTurk.Problem[]",
          "name": "",
          "type": "tuple[]"
        }
      ],
      "stateMutability": "view",
      "type": "function"
    },
    {
      "inputs": [],
      "name": "getTaskAnswers",
      "outputs": [
        {
          "components": [
            {
              "internalType": "uint256",
              "name": "problemId",
              "type": "uint256"
            },
            {
              "internalType": "uint256",
              "name": "taskId",
              "type": "uint256"
            },
            {
              "internalType": "address",
              "name": "worker",
              "type": "address"
            },
            {
              "internalType": "bytes",
              "name": "cipheredAnswer",
              "type": "bytes"
            },
            {
              "internalType": "string",
              "name": "answer",
              "type": "string"
            }
          ],
          "internalType": "struct ZkTurk.TaskAnswer[]",
          "name": "",
          "type": "tuple[]"
        }
      ],
      "stateMutability": "view",
      "type": "function"
    },
    {
      "inputs": [
        {
          "internalType": "address",
          "name": "worker",
          "type": "address"
        },
        {
          "internalType": "uint256",
          "name": "problemId",
          "type": "uint256"
        }
      ],
      "name": "getWorkerToProblemAnswerIds",
      "outputs": [
        {
          "internalType": "uint256[]",
          "name": "",
          "type": "uint256[]"
        }
      ],
      "stateMutability": "view",
      "type": "function"
    },
    {
      "inputs": [
        {
          "internalType": "string",
          "name": "answer",
          "type": "string"
        },
        {
          "internalType": "uint256",
          "name": "problemId",
          "type": "uint256"
        }
      ],
      "name": "isAnswerAllowed",
      "outputs": [
        {
          "internalType": "bool",
          "name": "",
          "type": "bool"
        }
      ],
      "stateMutability": "view",
      "type": "function"
    },
    {
      "inputs": [
        {
          "internalType": "bytes32",
          "name": "seed",
          "type": "bytes32"
        },
        {
          "internalType": "string",
          "name": "message",
          "type": "string"
        },
        {
          "internalType": "address",
          "name": "signer",
          "type": "address"
        },
        {
          "internalType": "bytes",
          "name": "signature",
          "type": "bytes"
        }
      ],
      "name": "isSeedValid",
      "outputs": [
        {
          "internalType": "bool",
          "name": "",
          "type": "bool"
        }
      ],
      "stateMutability": "view",
      "type": "function"
    },
    {
      "inputs": [
        {
          "internalType": "uint256",
          "name": "problemId",
          "type": "uint256"
        },
        {
          "internalType": "uint256",
          "name": "taskId",
          "type": "uint256"
        }
      ],
      "name": "isTaskNotAnsweredByWorker",
      "outputs": [
        {
          "internalType": "bool",
          "name": "",
          "type": "bool"
        }
      ],
      "stateMutability": "view",
      "type": "function"
    },
    {
      "inputs": [
        {
          "internalType": "uint256",
          "name": "problemId",
          "type": "uint256"
        },
        {
          "internalType": "address",
          "name": "signal",
          "type": "address"
        },
        {
          "internalType": "uint256",
          "name": "root",
          "type": "uint256"
        },
        {
          "internalType": "uint256",
          "name": "nullifierHash",
          "type": "uint256"
        },
        {
          "internalType": "uint256[8]",
          "name": "proof",
          "type": "uint256[8]"
        }
      ],
      "name": "joinProblem",
      "outputs": [],
      "stateMutability": "payable",
      "type": "function"
    },
    {
      "inputs": [],
      "name": "owner",
      "outputs": [
        {
          "internalType": "address",
          "name": "",
          "type": "address"
        }
      ],
      "stateMutability": "view",
      "type": "function"
    },
    {
      "inputs": [],
      "name": "problemFee",
      "outputs": [
        {
          "internalType": "uint256",
          "name": "",
          "type": "uint256"
        }
      ],
      "stateMutability": "view",
      "type": "function"
    },
    {
      "inputs": [],
      "name": "problemStake",
      "outputs": [
        {
          "internalType": "uint256",
          "name": "",
          "type": "uint256"
        }
      ],
      "stateMutability": "view",
      "type": "function"
    },
    {
      "inputs": [
        {
          "internalType": "uint256",
          "name": "problemId",
          "type": "uint256"
        },
        {
          "internalType": "uint256",
          "name": "",
          "type": "uint256"
        }
      ],
      "name": "problemToAnswers",
      "outputs": [
        {
          "internalType": "uint256",
          "name": "",
          "type": "uint256"
        }
      ],
      "stateMutability": "view",
      "type": "function"
    },
    {
      "inputs": [
        {
          "internalType": "uint256",
          "name": "",
          "type": "uint256"
        }
      ],
      "name": "problems",
      "outputs": [
        {
          "internalType": "uint256",
          "name": "id",
          "type": "uint256"
        },
        {
          "internalType": "address",
          "name": "owner",
          "type": "address"
        },
        {
          "internalType": "string",
          "name": "title",
          "type": "string"
        },
        {
          "internalType": "string",
          "name": "description",
          "type": "string"
        },
        {
          "internalType": "uint256",
          "name": "workersMax",
          "type": "uint256"
        },
        {
          "internalType": "uint256",
          "name": "taskPriceWei",
          "type": "uint256"
        },
        {
          "internalType": "uint256",
          "name": "answersMax",
          "type": "uint256"
        }
      ],
      "stateMutability": "view",
      "type": "function"
    },
    {
      "inputs": [],
      "name": "renounceOwnership",
      "outputs": [],
      "stateMutability": "nonpayable",
      "type": "function"
    },
    {
      "inputs": [],
      "name": "resetActiveProblem",
      "outputs": [],
      "stateMutability": "nonpayable",
      "type": "function"
    },
    {
      "inputs": [
        {
          "internalType": "bool",
          "name": "_state",
          "type": "bool"
        }
      ],
      "name": "setUseVerification",
      "outputs": [],
      "stateMutability": "nonpayable",
      "type": "function"
    },
    {
      "inputs": [
        {
          "internalType": "uint256",
          "name": "problemId",
          "type": "uint256"
        },
        {
          "internalType": "uint256",
          "name": "taskId",
          "type": "uint256"
        },
        {
          "internalType": "bytes",
          "name": "cipheredAnswer",
          "type": "bytes"
        }
      ],
      "name": "solveTask",
      "outputs": [
        {
          "internalType": "uint256",
          "name": "",
          "type": "uint256"
        }
      ],
      "stateMutability": "nonpayable",
      "type": "function"
    },
    {
      "inputs": [
        {
          "internalType": "uint256",
          "name": "",
          "type": "uint256"
        }
      ],
      "name": "taskAnswers",
      "outputs": [
        {
          "internalType": "uint256",
          "name": "problemId",
          "type": "uint256"
        },
        {
          "internalType": "uint256",
          "name": "taskId",
          "type": "uint256"
        },
        {
          "internalType": "address",
          "name": "worker",
          "type": "address"
        },
        {
          "internalType": "bytes",
          "name": "cipheredAnswer",
          "type": "bytes"
        },
        {
          "internalType": "string",
          "name": "answer",
          "type": "string"
        }
      ],
      "stateMutability": "view",
      "type": "function"
    },
    {
      "inputs": [
        {
          "internalType": "address",
          "name": "newOwner",
          "type": "address"
        }
      ],
      "name": "transferOwnership",
      "outputs": [],
      "stateMutability": "nonpayable",
      "type": "function"
    },
    {
      "inputs": [],
      "name": "useVerification",
      "outputs": [
        {
          "internalType": "bool",
          "name": "",
          "type": "bool"
        }
      ],
      "stateMutability": "view",
      "type": "function"
    },
    {
      "inputs": [
        {
          "internalType": "address",
          "name": "worker",
          "type": "address"
        },
        {
          "internalType": "uint256",
          "name": "problemId",
          "type": "uint256"
        },
        {
          "internalType": "uint256[]",
          "name": "taskAnswerIds",
          "type": "uint256[]"
        },
        {
          "internalType": "string[]",
          "name": "answers",
          "type": "string[]"
        },
        {
          "internalType": "bytes32",
          "name": "seedPhrase",
          "type": "bytes32"
        }
      ],
      "name": "withdrawAndDecipher",
      "outputs": [],
      "stateMutability": "nonpayable",
      "type": "function"
    },
    {
      "inputs": [
        {
          "internalType": "address",
          "name": "",
          "type": "address"
        }
      ],
      "name": "workerToProblem",
      "outputs": [
        {
          "internalType": "uint256",
          "name": "",
          "type": "uint256"
        }
      ],
      "stateMutability": "view",
      "type": "function"
    },
    {
      "inputs": [
        {
          "internalType": "address",
          "name": "",
          "type": "address"
        },
        {
          "internalType": "uint256",
          "name": "",
          "type": "uint256"
        },
        {
          "internalType": "uint256",
          "name": "",
          "type": "uint256"
        }
      ],
      "name": "workerToProblemAnswerIds",
      "outputs": [
        {
          "internalType": "uint256",
          "name": "",
          "type": "uint256"
        }
      ],
      "stateMutability": "view",
      "type": "function"
    }
  ],
  "bytecode": "0x6101206040526040518060400160405280600481526020017f6e6f6e6500000000000000000000000000000000000000000000000000000000815250600190816200004b91906200085d565b506001610100908152503480156200006257600080fd5b5060405162006bec38038062006bec833981810160405281019062000088919062000b8f565b620000a86200009c6200025860201b60201c565b6200026060201b60201c565b85608081815250508460a0818152505083600260006101000a81548160ff0219169083151502179055508273ffffffffffffffffffffffffffffffffffffffff1660c08173ffffffffffffffffffffffffffffffffffffffff168152505062000175620001418360405160200162000121919062000cab565b6040516020818303038152906040526200032460201b62002ffb1760201c565b826040516020016200015592919062000ce9565b6040516020818303038152906040526200032460201b62002ffb1760201c565b60e0818152505060006040518060400160405280600981526020017f446f674f724361743f000000000000000000000000000000000000000000000081525090506000600167ffffffffffffffff811115620001d657620001d5620005ee565b5b6040519080825280602002602001820160405280156200020b57816020015b6060815260200190600190039081620001f55790505b509050818160008151811062000226576200022562000d15565b5b60200260200101819052506200024a8283838460018060016200035d60201b60201c565b505050505050505062000daa565b600033905090565b60008060009054906101000a900473ffffffffffffffffffffffffffffffffffffffff169050816000806101000a81548173ffffffffffffffffffffffffffffffffffffffff021916908373ffffffffffffffffffffffffffffffffffffffff1602179055508173ffffffffffffffffffffffffffffffffffffffff168173ffffffffffffffffffffffffffffffffffffffff167f8be0079c531659141344cd1fd0a4f28419497f9722a3daafe3b4186f6b6457e060405160405180910390a35050565b60006008826040516020016200033b919062000d91565b6040516020818303038152906040528051906020012060001c901c9050919050565b600360405180610120016040528060038054905081526020013373ffffffffffffffffffffffffffffffffffffffff1681526020018981526020018881526020018781526020018681526020018581526020018481526020018381525090806001815401808255809150506001900390600052602060002090600902016000909190919091506000820151816000015560208201518160010160006101000a81548173ffffffffffffffffffffffffffffffffffffffff021916908373ffffffffffffffffffffffffffffffffffffffff16021790555060408201518160020190816200044b91906200085d565b5060608201518160030190816200046391906200085d565b50608082015181600401908051906020019062000482929190620004f6565b5060a0820151816005019080519060200190620004a1929190620004f6565b5060c0820151816006015560e082015181600701556101008201518160080155505060046000908060018154018082558091505060019003906000526020600020016000909190919091505550505050505050565b82805482825590600052602060002090810192821562000543579160200282015b82811115620005425782518290816200053191906200085d565b509160200191906001019062000517565b5b50905062000552919062000556565b5090565b5b808211156200057a57600081816200057091906200057e565b5060010162000557565b5090565b5080546200058c906200064c565b6000825580601f10620005a05750620005c1565b601f016020900490600052602060002090810190620005c09190620005c4565b5b50565b5b80821115620005df576000816000905550600101620005c5565b5090565b600081519050919050565b7f4e487b7100000000000000000000000000000000000000000000000000000000600052604160045260246000fd5b7f4e487b7100000000000000000000000000000000000000000000000000000000600052602260045260246000fd5b600060028204905060018216806200066557607f821691505b6020821081036200067b576200067a6200061d565b5b50919050565b60008190508160005260206000209050919050565b60006020601f8301049050919050565b600082821b905092915050565b600060088302620006e57fffffffffffffffffffffffffffffffffffffffffffffffffffffffffffffffff82620006a6565b620006f18683620006a6565b95508019841693508086168417925050509392505050565b6000819050919050565b6000819050919050565b60006200073e62000738620007328462000709565b62000713565b62000709565b9050919050565b6000819050919050565b6200075a836200071d565b62000772620007698262000745565b848454620006b3565b825550505050565b600090565b620007896200077a565b620007968184846200074f565b505050565b5b81811015620007be57620007b26000826200077f565b6001810190506200079c565b5050565b601f8211156200080d57620007d78162000681565b620007e28462000696565b81016020851015620007f2578190505b6200080a620008018562000696565b8301826200079b565b50505b505050565b600082821c905092915050565b6000620008326000198460080262000812565b1980831691505092915050565b60006200084d83836200081f565b9150826002028217905092915050565b6200086882620005e3565b67ffffffffffffffff811115620008845762000883620005ee565b5b6200089082546200064c565b6200089d828285620007c2565b600060209050601f831160018114620008d55760008415620008c0578287015190505b620008cc85826200083f565b8655506200093c565b601f198416620008e58662000681565b60005b828110156200090f57848901518255600182019150602085019450602081019050620008e8565b868310156200092f57848901516200092b601f8916826200081f565b8355505b6001600288020188555050505b505050505050565b6000604051905090565b600080fd5b600080fd5b620009638162000709565b81146200096f57600080fd5b50565b600081519050620009838162000958565b92915050565b60008115159050919050565b620009a08162000989565b8114620009ac57600080fd5b50565b600081519050620009c08162000995565b92915050565b600073ffffffffffffffffffffffffffffffffffffffff82169050919050565b6000620009f382620009c6565b9050919050565b600062000a0782620009e6565b9050919050565b62000a1981620009fa565b811462000a2557600080fd5b50565b60008151905062000a398162000a0e565b92915050565b600080fd5b600080fd5b6000601f19601f8301169050919050565b62000a658262000a49565b810181811067ffffffffffffffff8211171562000a875762000a86620005ee565b5b80604052505050565b600062000a9c62000944565b905062000aaa828262000a5a565b919050565b600067ffffffffffffffff82111562000acd5762000acc620005ee565b5b62000ad88262000a49565b9050602081019050919050565b60005b8381101562000b0557808201518184015260208101905062000ae8565b60008484015250505050565b600062000b2862000b228462000aaf565b62000a90565b90508281526020810184848401111562000b475762000b4662000a44565b5b62000b5484828562000ae5565b509392505050565b600082601f83011262000b745762000b7362000a3f565b5b815162000b8684826020860162000b11565b91505092915050565b60008060008060008060c0878903121562000baf5762000bae6200094e565b5b600062000bbf89828a0162000972565b965050602062000bd289828a0162000972565b955050604062000be589828a01620009af565b945050606062000bf889828a0162000a28565b935050608087015167ffffffffffffffff81111562000c1c5762000c1b62000953565b5b62000c2a89828a0162000b5c565b92505060a087015167ffffffffffffffff81111562000c4e5762000c4d62000953565b5b62000c5c89828a0162000b5c565b9150509295509295509295565b600081905092915050565b600062000c8182620005e3565b62000c8d818562000c69565b935062000c9f81856020860162000ae5565b80840191505092915050565b600062000cb9828462000c74565b915081905092915050565b6000819050919050565b62000ce362000cdd8262000709565b62000cc4565b82525050565b600062000cf7828562000cce565b60208201915062000d09828462000c74565b91508190509392505050565b7f4e487b7100000000000000000000000000000000000000000000000000000000600052603260045260246000fd5b600081519050919050565b600081905092915050565b600062000d678262000d44565b62000d73818562000d4f565b935062000d8581856020860162000ae5565b80840191505092915050565b600062000d9f828462000d5a565b915081905092915050565b60805160a05160c05160e05161010051615de162000e0b60003960006126fc01526000612746015260006126bf0152600081816127f90152612dd401526000818161121e015281816112e70152818161215101526125f30152615de16000f3fe6080604052600436106101815760003560e01c8063708988f2116100d1578063bf7952e21161008a578063d5ee9eb911610064578063d5ee9eb9146105c7578063db6cdf59146105e3578063eba4f3661461060e578063f2fde38b1461065157610181565b8063bf7952e214610524578063c30f00e014610561578063ca7dc46f1461059e57610181565b8063708988f2146103ea578063715018a6146104275780638da5cb5b1461043e5780639caada3f14610469578063ab1dc2bf146104a6578063bd0b6b79146104e357610181565b806335e57c511161013e5780634f52227f116101185780634f52227f1461034d578063560eccf414610378578063562c92a0146103a35780635ee3708a146103bf57610181565b806335e57c51146102bc57806342d15912146102e557806343f61a581461031057610181565b8063010d24461461018657806304092851146101c35780630c080b23146101ee57806317cbd5561461022b5780632889e0751461026857806330d876291461027f575b600080fd5b34801561019257600080fd5b506101ad60048036038101906101a89190613ad0565b61067a565b6040516101ba9190613d79565b60405180910390f35b3480156101cf57600080fd5b506101d8610a0b565b6040516101e59190613f2f565b60405180910390f35b3480156101fa57600080fd5b5061021560048036038101906102109190613f7d565b610bf8565b604051610222919061406c565b60405180910390f35b34801561023757600080fd5b50610252600480360381019061024d919061408e565b610ca1565b60405161025f91906140dd565b60405180910390f35b34801561027457600080fd5b5061027d610cd2565b005b34801561028b57600080fd5b506102a660048036038101906102a191906140f8565b610d62565b6040516102b391906140dd565b60405180910390f35b3480156102c857600080fd5b506102e360048036038101906102de9190614183565b610da0565b005b3480156102f157600080fd5b506102fa610dc5565b604051610307919061434c565b60405180910390f35b34801561031c57600080fd5b506103376004803603810190610332919061457a565b611179565b6040516103449190614628565b60405180910390f35b34801561035957600080fd5b5061036261121c565b60405161036f91906140dd565b60405180910390f35b34801561038457600080fd5b5061038d611240565b60405161039a919061468d565b60405180910390f35b6103bd60048036038101906103b89190614795565b6112ce565b005b3480156103cb57600080fd5b506103d461136a565b6040516103e19190614628565b60405180910390f35b3480156103f657600080fd5b50610411600480360381019061040c9190613ad0565b61137d565b60405161041e919061492d565b60405180910390f35b34801561043357600080fd5b5061043c61147b565b005b34801561044a57600080fd5b5061045361148f565b604051610460919061495e565b60405180910390f35b34801561047557600080fd5b50610490600480360381019061048b9190614979565b6114b8565b60405161049d91906140dd565b60405180910390f35b3480156104b257600080fd5b506104cd60048036038101906104c8919061408e565b6114d0565b6040516104da9190614628565b60405180910390f35b3480156104ef57600080fd5b5061050a60048036038101906105059190613ad0565b61179b565b60405161051b9594939291906149f0565b60405180910390f35b34801561053057600080fd5b5061054b60048036038101906105469190614a51565b611911565b6040516105589190614628565b60405180910390f35b34801561056d57600080fd5b5061058860048036038101906105839190614aad565b611b87565b60405161059591906140dd565b60405180910390f35b3480156105aa57600080fd5b506105c560048036038101906105c09190614bdf565b611f5b565b005b6105e160048036038101906105dc9190614cb4565b61256e565b005b3480156105ef57600080fd5b506105f8612dd2565b60405161060591906140dd565b60405180910390f35b34801561061a57600080fd5b5061063560048036038101906106309190613ad0565b612df6565b6040516106489796959493929190614d30565b60405180910390f35b34801561065d57600080fd5b5061067860048036038101906106739190614979565b612f78565b005b61068261394a565b6003828154811061069657610695614dad565b5b906000526020600020906009020160405180610120016040529081600082015481526020016001820160009054906101000a900473ffffffffffffffffffffffffffffffffffffffff1673ffffffffffffffffffffffffffffffffffffffff1673ffffffffffffffffffffffffffffffffffffffff16815260200160028201805461072090614e0b565b80601f016020809104026020016040519081016040528092919081815260200182805461074c90614e0b565b80156107995780601f1061076e57610100808354040283529160200191610799565b820191906000526020600020905b81548152906001019060200180831161077c57829003601f168201915b505050505081526020016003820180546107b290614e0b565b80601f01602080910402602001604051908101604052809291908181526020018280546107de90614e0b565b801561082b5780601f106108005761010080835404028352916020019161082b565b820191906000526020600020905b81548152906001019060200180831161080e57829003601f168201915b5050505050815260200160048201805480602002602001604051908101604052809291908181526020016000905b8282101561090557838290600052602060002001805461087890614e0b565b80601f01602080910402602001604051908101604052809291908181526020018280546108a490614e0b565b80156108f15780601f106108c6576101008083540402835291602001916108f1565b820191906000526020600020905b8154815290600101906020018083116108d457829003601f168201915b505050505081526020019060010190610859565b50505050815260200160058201805480602002602001604051908101604052809291908181526020016000905b828210156109de57838290600052602060002001805461095190614e0b565b80601f016020809104026020016040519081016040528092919081815260200182805461097d90614e0b565b80156109ca5780601f1061099f576101008083540402835291602001916109ca565b820191906000526020600020905b8154815290600101906020018083116109ad57829003601f168201915b505050505081526020019060010190610932565b50505050815260200160068201548152602001600782015481526020016008820154815250509050919050565b60606007805480602002602001604051908101604052809291908181526020016000905b82821015610bef57838290600052602060002090600502016040518060a001604052908160008201548152602001600182015481526020016002820160009054906101000a900473ffffffffffffffffffffffffffffffffffffffff1673ffffffffffffffffffffffffffffffffffffffff1673ffffffffffffffffffffffffffffffffffffffff168152602001600382018054610acc90614e0b565b80601f0160208091040260200160405190810160405280929190818152602001828054610af890614e0b565b8015610b455780601f10610b1a57610100808354040283529160200191610b45565b820191906000526020600020905b815481529060010190602001808311610b2857829003601f168201915b50505050508152602001600482018054610b5e90614e0b565b80601f0160208091040260200160405190810160405280929190818152602001828054610b8a90614e0b565b8015610bd75780601f10610bac57610100808354040283529160200191610bd7565b820191906000526020600020905b815481529060010190602001808311610bba57829003601f168201915b50505050508152505081526020019060010190610a2f565b50505050905090565b6060600960008473ffffffffffffffffffffffffffffffffffffffff1673ffffffffffffffffffffffffffffffffffffffff1681526020019081526020016000206000838152602001908152602001600020805480602002602001604051908101604052809291908181526020018280548015610c9457602002820191906000526020600020905b815481526020019060010190808311610c80575b5050505050905092915050565b60086020528160005260406000208181548110610cbd57600080fd5b90600052602060002001600091509150505481565b6000600560003373ffffffffffffffffffffffffffffffffffffffff1673ffffffffffffffffffffffffffffffffffffffff16815260200190815260200160002054905060008114610d5f57600160048281548110610d3457610d33614dad565b5b906000526020600020016000828254610d4d9190614e6b565b92505081905550610d5e8133613032565b5b50565b60096020528260005260406000206020528160005260406000208181548110610d8a57600080fd5b9060005260206000200160009250925050505481565b610da86130bc565b80600260006101000a81548160ff02191690831515021790555050565b60606003805480602002602001604051908101604052809291908181526020016000905b82821015611170578382906000526020600020906009020160405180610120016040529081600082015481526020016001820160009054906101000a900473ffffffffffffffffffffffffffffffffffffffff1673ffffffffffffffffffffffffffffffffffffffff1673ffffffffffffffffffffffffffffffffffffffff168152602001600282018054610e7d90614e0b565b80601f0160208091040260200160405190810160405280929190818152602001828054610ea990614e0b565b8015610ef65780601f10610ecb57610100808354040283529160200191610ef6565b820191906000526020600020905b815481529060010190602001808311610ed957829003601f168201915b50505050508152602001600382018054610f0f90614e0b565b80601f0160208091040260200160405190810160405280929190818152602001828054610f3b90614e0b565b8015610f885780601f10610f5d57610100808354040283529160200191610f88565b820191906000526020600020905b815481529060010190602001808311610f6b57829003601f168201915b5050505050815260200160048201805480602002602001604051908101604052809291908181526020016000905b82821015611062578382906000526020600020018054610fd590614e0b565b80601f016020809104026020016040519081016040528092919081815260200182805461100190614e0b565b801561104e5780601f106110235761010080835404028352916020019161104e565b820191906000526020600020905b81548152906001019060200180831161103157829003601f168201915b505050505081526020019060010190610fb6565b50505050815260200160058201805480602002602001604051908101604052809291908181526020016000905b8282101561113b5783829060005260206000200180546110ae90614e0b565b80601f01602080910402602001604051908101604052809291908181526020018280546110da90614e0b565b80156111275780601f106110fc57610100808354040283529160200191611127565b820191906000526020600020905b81548152906001019060200180831161110a57829003601f168201915b50505050508152602001906001019061108f565b505050508152602001600682015481526020016007820154815260200160088201548152505081526020019060010190610de9565b50505050905090565b600080858560405160200161118f929190614eae565b6040516020818303038152906040528051906020012090506000816040516020016111ba9190614f56565b60405160208183030381529060405280519060200120905060006111de828661313a565b90508073ffffffffffffffffffffffffffffffffffffffff168673ffffffffffffffffffffffffffffffffffffffff16149350505050949350505050565b7f000000000000000000000000000000000000000000000000000000000000000081565b6001805461124d90614e0b565b80601f016020809104026020016040519081016040528092919081815260200182805461127990614e0b565b80156112c65780601f1061129b576101008083540402835291602001916112c6565b820191906000526020600020905b8154815290600101906020018083116112a957829003601f168201915b505050505081565b8183826112db9190614f7c565b6112e59190614f7c565b7f00000000000000000000000000000000000000000000000000000000000000006113109190614fbe565b341015611352576040517f08c379a00000000000000000000000000000000000000000000000000000000081526004016113499061503e565b60405180910390fd5b611361878787878787876131a9565b50505050505050565b600260009054906101000a900460ff1681565b60606003828154811061139357611392614dad565b5b9060005260206000209060090201600401805480602002602001604051908101604052809291908181526020016000905b828210156114705783829060005260206000200180546113e390614e0b565b80601f016020809104026020016040519081016040528092919081815260200182805461140f90614e0b565b801561145c5780601f106114315761010080835404028352916020019161145c565b820191906000526020600020905b81548152906001019060200180831161143f57829003601f168201915b5050505050815260200190600101906113c4565b505050509050919050565b6114836130bc565b61148d600061333a565b565b60008060009054906101000a900473ffffffffffffffffffffffffffffffffffffffff16905090565b60056020528060005260406000206000915090505481565b600080600960003373ffffffffffffffffffffffffffffffffffffffff1673ffffffffffffffffffffffffffffffffffffffff168152602001908152602001600020600085815260200190815260200160002080548060200260200160405190810160405280929190818152602001828054801561156d57602002820191906000526020600020905b815481526020019060010190808311611559575b5050505050905060006001905060005b825181101561178f57600083828151811061159b5761159a614dad565b5b602002602001015190506000600782815481106115bb576115ba614dad565b5b90600052602060002090600502016040518060a001604052908160008201548152602001600182015481526020016002820160009054906101000a900473ffffffffffffffffffffffffffffffffffffffff1673ffffffffffffffffffffffffffffffffffffffff1673ffffffffffffffffffffffffffffffffffffffff16815260200160038201805461164e90614e0b565b80601f016020809104026020016040519081016040528092919081815260200182805461167a90614e0b565b80156116c75780601f1061169c576101008083540402835291602001916116c7565b820191906000526020600020905b8154815290600101906020018083116116aa57829003601f168201915b505050505081526020016004820180546116e090614e0b565b80601f016020809104026020016040519081016040528092919081815260200182805461170c90614e0b565b80156117595780601f1061172e57610100808354040283529160200191611759565b820191906000526020600020905b81548152906001019060200180831161173c57829003601f168201915b50505050508152505090508060200151870361177a5760009350505061178f565b505080806117879061505e565b91505061157d565b50809250505092915050565b600781815481106117ab57600080fd5b90600052602060002090600502016000915090508060000154908060010154908060020160009054906101000a900473ffffffffffffffffffffffffffffffffffffffff169080600301805461180090614e0b565b80601f016020809104026020016040519081016040528092919081815260200182805461182c90614e0b565b80156118795780601f1061184e57610100808354040283529160200191611879565b820191906000526020600020905b81548152906001019060200180831161185c57829003601f168201915b50505050509080600401805461188e90614e0b565b80601f01602080910402602001604051908101604052809291908181526020018280546118ba90614e0b565b80156119075780601f106118dc57610100808354040283529160200191611907565b820191906000526020600020905b8154815290600101906020018083116118ea57829003601f168201915b5050505050905085565b6000600380549050821061195a576040517f08c379a0000000000000000000000000000000000000000000000000000000008152600401611951906150f2565b60405180910390fd5b6000600383815481106119705761196f614dad565b5b9060005260206000209060090201600501805480602002602001604051908101604052809291908181526020016000905b82821015611a4d5783829060005260206000200180546119c090614e0b565b80601f01602080910402602001604051908101604052809291908181526020018280546119ec90614e0b565b8015611a395780601f10611a0e57610100808354040283529160200191611a39565b820191906000526020600020905b815481529060010190602001808311611a1c57829003601f168201915b5050505050815260200190600101906119a1565b5050505090506000805b8251811015611b7b57611a9e6040518060400160405280601181526020017f636f6d70617265537472696e67732e2e2e0000000000000000000000000000008152506133fe565b611add6040518060400160405280600681526020017f616e73776572000000000000000000000000000000000000000000000000000081525087613497565b611b366040518060400160405280601181526020017f70726f626c656d41736e776572735b695d000000000000000000000000000000815250848381518110611b2957611b28614dad565b5b6020026020010151613497565b611b5a86848381518110611b4d57611b4c614dad565b5b6020026020010151613533565b15611b685760019150611b7b565b8080611b739061505e565b915050611a57565b50809250505092915050565b600083600560003373ffffffffffffffffffffffffffffffffffffffff1673ffffffffffffffffffffffffffffffffffffffff1681526020019081526020016000205414611c0a576040517f08c379a0000000000000000000000000000000000000000000000000000000008152600401611c0190615184565b60405180910390fd5b611c1484846114d0565b611c53576040517f08c379a0000000000000000000000000000000000000000000000000000000008152600401611c4a9061523c565b60405180910390fd5b60038481548110611c6757611c66614dad565b5b90600052602060002090600902016008015460086000868152602001908152602001600020805490501115611cd1576040517f08c379a0000000000000000000000000000000000000000000000000000000008152600401611cc8906152a8565b60405180910390fd5b60076040518060a001604052808681526020018581526020013373ffffffffffffffffffffffffffffffffffffffff16815260200184815260200160018054611d1990614e0b565b80601f0160208091040260200160405190810160405280929190818152602001828054611d4590614e0b565b8015611d925780601f10611d6757610100808354040283529160200191611d92565b820191906000526020600020905b815481529060010190602001808311611d7557829003601f168201915b50505050508152509080600181540180825580915050600190039060005260206000209060050201600090919091909150600082015181600001556020820151816001015560408201518160020160006101000a81548173ffffffffffffffffffffffffffffffffffffffff021916908373ffffffffffffffffffffffffffffffffffffffff1602179055506060820151816003019081611e339190615474565b506080820151816004019081611e4991906155a1565b50505060006001600780549050611e609190614e6b565b905060086000868152602001908152602001600020819080600181540180825580915050600190039060005260206000200160009091909190915055600960003373ffffffffffffffffffffffffffffffffffffffff1673ffffffffffffffffffffffffffffffffffffffff16815260200190815260200160002060008681526020019081526020016000208190806001815401808255809150506001900390600052602060002001600090919091909150557fb5cd67fd7313ad01a6e82290eb99de7faa95dfe9a1077736b229bc3ddca4918985858584604051611f489493929190615673565b60405180910390a1809150509392505050565b8251825114611f9f576040517f08c379a0000000000000000000000000000000000000000000000000000000008152600401611f9690615731565b60405180910390fd5b611fdd6040518060400160405280601681526020017f7769746864726177416e6444656369706865722e2e2e000000000000000000008152506133fe565b61201c6040518060400160405280600981526020017f70726f626c656d496400000000000000000000000000000000000000000000008152508561358c565b60005b835181101561210657600084828151811061203d5761203c614dad565b5b60200260200101519050600084838151811061205c5761205b614dad565b5b602002602001015190506120a56040518060400160405280600c81526020017f7461736b416e73776572496400000000000000000000000000000000000000008152508361358c565b6120e46040518060400160405280600a81526020017f75736572416e737765720000000000000000000000000000000000000000000081525082613497565b6120f18888848488613628565b505080806120fe9061505e565b91505061201f565b50600080600660003373ffffffffffffffffffffffffffffffffffffffff1673ffffffffffffffffffffffffffffffffffffffff1681526020019081526020016000205414612173577f000000000000000000000000000000000000000000000000000000000000000090505b61217d8587613032565b60006003868154811061219357612192614dad565b5b906000526020600020906009020160405180610120016040529081600082015481526020016001820160009054906101000a900473ffffffffffffffffffffffffffffffffffffffff1673ffffffffffffffffffffffffffffffffffffffff1673ffffffffffffffffffffffffffffffffffffffff16815260200160028201805461221d90614e0b565b80601f016020809104026020016040519081016040528092919081815260200182805461224990614e0b565b80156122965780601f1061226b57610100808354040283529160200191612296565b820191906000526020600020905b81548152906001019060200180831161227957829003601f168201915b505050505081526020016003820180546122af90614e0b565b80601f01602080910402602001604051908101604052809291908181526020018280546122db90614e0b565b80156123285780601f106122fd57610100808354040283529160200191612328565b820191906000526020600020905b81548152906001019060200180831161230b57829003601f168201915b5050505050815260200160048201805480602002602001604051908101604052809291908181526020016000905b8282101561240257838290600052602060002001805461237590614e0b565b80601f01602080910402602001604051908101604052809291908181526020018280546123a190614e0b565b80156123ee5780601f106123c3576101008083540402835291602001916123ee565b820191906000526020600020905b8154815290600101906020018083116123d157829003601f168201915b505050505081526020019060010190612356565b50505050815260200160058201805480602002602001604051908101604052809291908181526020016000905b828210156124db57838290600052602060002001805461244e90614e0b565b80601f016020809104026020016040519081016040528092919081815260200182805461247a90614e0b565b80156124c75780601f1061249c576101008083540402835291602001916124c7565b820191906000526020600020905b8154815290600101906020018083116124aa57829003601f168201915b50505050508152602001906001019061242f565b505050508152602001600682015481526020016007820154815260200160088201548152505090508673ffffffffffffffffffffffffffffffffffffffff166108fc8260e00151865161252e9190614f7c565b846125399190614fbe565b9081150290604051600060405180830381858888f19350505050158015612564573d6000803e3d6000fd5b5050505050505050565b600260009054906101000a900460ff16156127f7578373ffffffffffffffffffffffffffffffffffffffff163373ffffffffffffffffffffffffffffffffffffffff16146125f1576040517f08c379a00000000000000000000000000000000000000000000000000000000081526004016125e8906157c3565b60405180910390fd5b7f0000000000000000000000000000000000000000000000000000000000000000341015612654576040517f08c379a000000000000000000000000000000000000000000000000000000000815260040161264b9061582f565b60405180910390fd5b600a6000838152602001908152602001600020600086815260200190815260200160002060009054906101000a900460ff16156126bd576040517f5d904cb200000000000000000000000000000000000000000000000000000000815260040160405180910390fd5b7f000000000000000000000000000000000000000000000000000000000000000073ffffffffffffffffffffffffffffffffffffffff16633bc778e3847f00000000000000000000000000000000000000000000000000000000000000006127438860405160200161272f9190615897565b604051602081830303815290604052612ffb565b867f0000000000000000000000000000000000000000000000000000000000000000876040518763ffffffff1660e01b8152600401612787969594939291906158cc565b600060405180830381600087803b1580156127a157600080fd5b505af11580156127b5573d6000803e3d6000fd5b505050506001600a6000848152602001908152602001600020600087815260200190815260200160002060006101000a81548160ff0219169083151502179055505b7f00000000000000000000000000000000000000000000000000000000000000003414612859576040517f08c379a00000000000000000000000000000000000000000000000000000000081526004016128509061503e565b60405180910390fd5b60038054905085106128a0576040517f08c379a0000000000000000000000000000000000000000000000000000000008152600401612897906150f2565b60405180910390fd5b6000600386815481106128b6576128b5614dad565b5b906000526020600020906009020160405180610120016040529081600082015481526020016001820160009054906101000a900473ffffffffffffffffffffffffffffffffffffffff1673ffffffffffffffffffffffffffffffffffffffff1673ffffffffffffffffffffffffffffffffffffffff16815260200160028201805461294090614e0b565b80601f016020809104026020016040519081016040528092919081815260200182805461296c90614e0b565b80156129b95780601f1061298e576101008083540402835291602001916129b9565b820191906000526020600020905b81548152906001019060200180831161299c57829003601f168201915b505050505081526020016003820180546129d290614e0b565b80601f01602080910402602001604051908101604052809291908181526020018280546129fe90614e0b565b8015612a4b5780601f10612a2057610100808354040283529160200191612a4b565b820191906000526020600020905b815481529060010190602001808311612a2e57829003601f168201915b5050505050815260200160048201805480602002602001604051908101604052809291908181526020016000905b82821015612b25578382906000526020600020018054612a9890614e0b565b80601f0160208091040260200160405190810160405280929190818152602001828054612ac490614e0b565b8015612b115780601f10612ae657610100808354040283529160200191612b11565b820191906000526020600020905b815481529060010190602001808311612af457829003601f168201915b505050505081526020019060010190612a79565b50505050815260200160058201805480602002602001604051908101604052809291908181526020016000905b82821015612bfe578382906000526020600020018054612b7190614e0b565b80601f0160208091040260200160405190810160405280929190818152602001828054612b9d90614e0b565b8015612bea5780601f10612bbf57610100808354040283529160200191612bea565b820191906000526020600020905b815481529060010190602001808311612bcd57829003601f168201915b505050505081526020019060010190612b52565b505050508152602001600682015481526020016007820154815260200160088201548152505090508060c0015160048781548110612c3f57612c3e614dad565b5b906000526020600020015410612c8a576040517f08c379a0000000000000000000000000000000000000000000000000000000008152600401612c819061597a565b60405180910390fd5b6000600560003373ffffffffffffffffffffffffffffffffffffffff1673ffffffffffffffffffffffffffffffffffffffff1681526020019081526020016000205414612d0c576040517f08c379a0000000000000000000000000000000000000000000000000000000008152600401612d03906159e6565b60405180910390fd5b85600560003373ffffffffffffffffffffffffffffffffffffffff1673ffffffffffffffffffffffffffffffffffffffff1681526020019081526020016000208190555085600660003373ffffffffffffffffffffffffffffffffffffffff1673ffffffffffffffffffffffffffffffffffffffff16815260200190815260200160002081905550600160048781548110612daa57612da9614dad565b5b906000526020600020016000828254612dc39190614fbe565b92505081905550505050505050565b7f000000000000000000000000000000000000000000000000000000000000000081565b60038181548110612e0657600080fd5b90600052602060002090600902016000915090508060000154908060010160009054906101000a900473ffffffffffffffffffffffffffffffffffffffff1690806002018054612e5590614e0b565b80601f0160208091040260200160405190810160405280929190818152602001828054612e8190614e0b565b8015612ece5780601f10612ea357610100808354040283529160200191612ece565b820191906000526020600020905b815481529060010190602001808311612eb157829003601f168201915b505050505090806003018054612ee390614e0b565b80601f0160208091040260200160405190810160405280929190818152602001828054612f0f90614e0b565b8015612f5c5780601f10612f3157610100808354040283529160200191612f5c565b820191906000526020600020905b815481529060010190602001808311612f3f57829003601f168201915b5050505050908060060154908060070154908060080154905087565b612f806130bc565b600073ffffffffffffffffffffffffffffffffffffffff168173ffffffffffffffffffffffffffffffffffffffff1603612fef576040517f08c379a0000000000000000000000000000000000000000000000000000000008152600401612fe690615a78565b60405180910390fd5b612ff88161333a565b50565b60006008826040516020016130109190615ad4565b6040516020818303038152906040528051906020012060001c901c9050919050565b600560008273ffffffffffffffffffffffffffffffffffffffff1673ffffffffffffffffffffffffffffffffffffffff16815260200190815260200160002060009055600660008273ffffffffffffffffffffffffffffffffffffffff1673ffffffffffffffffffffffffffffffffffffffff168152602001908152602001600020600090555050565b6130c46138e7565b73ffffffffffffffffffffffffffffffffffffffff166130e261148f565b73ffffffffffffffffffffffffffffffffffffffff1614613138576040517f08c379a000000000000000000000000000000000000000000000000000000000815260040161312f90615b37565b60405180910390fd5b565b600080600080613149856138ef565b925092509250600186848484604051600081526020016040526040516131729493929190615b73565b6020604051602081039080840390855afa158015613194573d6000803e3d6000fd5b50505060206040510351935050505092915050565b600360405180610120016040528060038054905081526020013373ffffffffffffffffffffffffffffffffffffffff1681526020018981526020018881526020018781526020018681526020018581526020018481526020018381525090806001815401808255809150506001900390600052602060002090600902016000909190919091506000820151816000015560208201518160010160006101000a81548173ffffffffffffffffffffffffffffffffffffffff021916908373ffffffffffffffffffffffffffffffffffffffff160217905550604082015181600201908161329591906155a1565b5060608201518160030190816132ab91906155a1565b5060808201518160040190805190602001906132c89291906139ac565b5060a08201518160050190805190602001906132e59291906139ac565b5060c0820151816006015560e082015181600701556101008201518160080155505060046000908060018154018082558091505060019003906000526020600020016000909190919091505550505050505050565b60008060009054906101000a900473ffffffffffffffffffffffffffffffffffffffff169050816000806101000a81548173ffffffffffffffffffffffffffffffffffffffff021916908373ffffffffffffffffffffffffffffffffffffffff1602179055508173ffffffffffffffffffffffffffffffffffffffff168173ffffffffffffffffffffffffffffffffffffffff167f8be0079c531659141344cd1fd0a4f28419497f9722a3daafe3b4186f6b6457e060405160405180910390a35050565b61349481604051602401613412919061468d565b6040516020818303038152906040527f41304fac000000000000000000000000000000000000000000000000000000007bffffffffffffffffffffffffffffffffffffffffffffffffffffffff19166020820180517bffffffffffffffffffffffffffffffffffffffffffffffffffffffff8381831617835250505050613921565b50565b61352f82826040516024016134ad929190615bb8565b6040516020818303038152906040527f4b5c4277000000000000000000000000000000000000000000000000000000007bffffffffffffffffffffffffffffffffffffffffffffffffffffffff19166020820180517bffffffffffffffffffffffffffffffffffffffffffffffffffffffff8381831617835250505050613921565b5050565b6000816040516020016135469190615c20565b604051602081830303815290604052805190602001208360405160200161356d9190615c20565b6040516020818303038152906040528051906020012014905092915050565b61362482826040516024016135a2929190615c37565b6040516020818303038152906040527fb60e72cc000000000000000000000000000000000000000000000000000000007bffffffffffffffffffffffffffffffffffffffffffffffffffffffff19166020820180517bffffffffffffffffffffffffffffffffffffffffffffffffffffffff8381831617835250505050613921565b5050565b6136328285611911565b613671576040517f08c379a000000000000000000000000000000000000000000000000000000000815260040161366890615cb3565b60405180910390fd5b60006007848154811061368757613686614dad565b5b906000526020600020906005020190506137b78160040180546136a990614e0b565b80601f01602080910402602001604051908101604052809291908181526020018280546136d590614e0b565b80156137225780601f106136f757610100808354040283529160200191613722565b820191906000526020600020905b81548152906001019060200180831161370557829003601f168201915b50505050506001805461373490614e0b565b80601f016020809104026020016040519081016040528092919081815260200182805461376090614e0b565b80156137ad5780601f10613782576101008083540402835291602001916137ad565b820191906000526020600020905b81548152906001019060200180831161379057829003601f168201915b5050505050613533565b6137f6576040517f08c379a00000000000000000000000000000000000000000000000000000000081526004016137ed90615d1f565b60405180910390fd5b61388e82848884600301805461380b90614e0b565b80601f016020809104026020016040519081016040528092919081815260200182805461383790614e0b565b80156138845780601f1061385957610100808354040283529160200191613884565b820191906000526020600020905b81548152906001019060200180831161386757829003601f168201915b5050505050611179565b6138cd576040517f08c379a00000000000000000000000000000000000000000000000000000000081526004016138c490615d8b565b60405180910390fd5b828160040190816138de91906155a1565b50505050505050565b600033905090565b6000806000604184511461390257600080fd5b6020840151915060408401519050606084015160001a92509193909250565b60008151905060006a636f6e736f6c652e6c6f679050602083016000808483855afa5050505050565b60405180610120016040528060008152602001600073ffffffffffffffffffffffffffffffffffffffff168152602001606081526020016060815260200160608152602001606081526020016000815260200160008152602001600081525090565b8280548282559060005260206000209081019282156139f4579160200282015b828111156139f35782518290816139e391906155a1565b50916020019190600101906139cc565b5b509050613a019190613a05565b5090565b5b80821115613a255760008181613a1c9190613a29565b50600101613a06565b5090565b508054613a3590614e0b565b6000825580601f10613a475750613a66565b601f016020900490600052602060002090810190613a659190613a69565b5b50565b5b80821115613a82576000816000905550600101613a6a565b5090565b6000604051905090565b600080fd5b600080fd5b6000819050919050565b613aad81613a9a565b8114613ab857600080fd5b50565b600081359050613aca81613aa4565b92915050565b600060208284031215613ae657613ae5613a90565b5b6000613af484828501613abb565b91505092915050565b613b0681613a9a565b82525050565b600073ffffffffffffffffffffffffffffffffffffffff82169050919050565b6000613b3782613b0c565b9050919050565b613b4781613b2c565b82525050565b600081519050919050565b600082825260208201905092915050565b60005b83811015613b87578082015181840152602081019050613b6c565b60008484015250505050565b6000601f19601f8301169050919050565b6000613baf82613b4d565b613bb98185613b58565b9350613bc9818560208601613b69565b613bd281613b93565b840191505092915050565b600081519050919050565b600082825260208201905092915050565b6000819050602082019050919050565b6000613c158383613ba4565b905092915050565b6000602082019050919050565b6000613c3582613bdd565b613c3f8185613be8565b935083602082028501613c5185613bf9565b8060005b85811015613c8d5784840389528151613c6e8582613c09565b9450613c7983613c1d565b925060208a01995050600181019050613c55565b50829750879550505050505092915050565b600061012083016000830151613cb86000860182613afd565b506020830151613ccb6020860182613b3e565b5060408301518482036040860152613ce38282613ba4565b91505060608301518482036060860152613cfd8282613ba4565b91505060808301518482036080860152613d178282613c2a565b91505060a083015184820360a0860152613d318282613c2a565b91505060c0830151613d4660c0860182613afd565b5060e0830151613d5960e0860182613afd565b50610100830151613d6e610100860182613afd565b508091505092915050565b60006020820190508181036000830152613d938184613c9f565b905092915050565b600081519050919050565b600082825260208201905092915050565b6000819050602082019050919050565b600081519050919050565b600082825260208201905092915050565b6000613dee82613dc7565b613df88185613dd2565b9350613e08818560208601613b69565b613e1181613b93565b840191505092915050565b600060a083016000830151613e346000860182613afd565b506020830151613e476020860182613afd565b506040830151613e5a6040860182613b3e565b5060608301518482036060860152613e728282613de3565b91505060808301518482036080860152613e8c8282613ba4565b9150508091505092915050565b6000613ea58383613e1c565b905092915050565b6000602082019050919050565b6000613ec582613d9b565b613ecf8185613da6565b935083602082028501613ee185613db7565b8060005b85811015613f1d5784840389528151613efe8582613e99565b9450613f0983613ead565b925060208a01995050600181019050613ee5565b50829750879550505050505092915050565b60006020820190508181036000830152613f498184613eba565b905092915050565b613f5a81613b2c565b8114613f6557600080fd5b50565b600081359050613f7781613f51565b92915050565b60008060408385031215613f9457613f93613a90565b5b6000613fa285828601613f68565b9250506020613fb385828601613abb565b9150509250929050565b600081519050919050565b600082825260208201905092915050565b6000819050602082019050919050565b6000613ff58383613afd565b60208301905092915050565b6000602082019050919050565b600061401982613fbd565b6140238185613fc8565b935061402e83613fd9565b8060005b8381101561405f5781516140468882613fe9565b975061405183614001565b925050600181019050614032565b5085935050505092915050565b60006020820190508181036000830152614086818461400e565b905092915050565b600080604083850312156140a5576140a4613a90565b5b60006140b385828601613abb565b92505060206140c485828601613abb565b9150509250929050565b6140d781613a9a565b82525050565b60006020820190506140f260008301846140ce565b92915050565b60008060006060848603121561411157614110613a90565b5b600061411f86828701613f68565b935050602061413086828701613abb565b925050604061414186828701613abb565b9150509250925092565b60008115159050919050565b6141608161414b565b811461416b57600080fd5b50565b60008135905061417d81614157565b92915050565b60006020828403121561419957614198613a90565b5b60006141a78482850161416e565b91505092915050565b600081519050919050565b600082825260208201905092915050565b6000819050602082019050919050565b6000610120830160008301516141f56000860182613afd565b5060208301516142086020860182613b3e565b50604083015184820360408601526142208282613ba4565b9150506060830151848203606086015261423a8282613ba4565b915050608083015184820360808601526142548282613c2a565b91505060a083015184820360a086015261426e8282613c2a565b91505060c083015161428360c0860182613afd565b5060e083015161429660e0860182613afd565b506101008301516142ab610100860182613afd565b508091505092915050565b60006142c283836141dc565b905092915050565b6000602082019050919050565b60006142e2826141b0565b6142ec81856141bb565b9350836020820285016142fe856141cc565b8060005b8581101561433a578484038952815161431b85826142b6565b9450614326836142ca565b925060208a01995050600181019050614302565b50829750879550505050505092915050565b6000602082019050818103600083015261436681846142d7565b905092915050565b6000819050919050565b6143818161436e565b811461438c57600080fd5b50565b60008135905061439e81614378565b92915050565b600080fd5b600080fd5b7f4e487b7100000000000000000000000000000000000000000000000000000000600052604160045260246000fd5b6143e682613b93565b810181811067ffffffffffffffff82111715614405576144046143ae565b5b80604052505050565b6000614418613a86565b905061442482826143dd565b919050565b600067ffffffffffffffff821115614444576144436143ae565b5b61444d82613b93565b9050602081019050919050565b82818337600083830152505050565b600061447c61447784614429565b61440e565b905082815260208101848484011115614498576144976143a9565b5b6144a384828561445a565b509392505050565b600082601f8301126144c0576144bf6143a4565b5b81356144d0848260208601614469565b91505092915050565b600067ffffffffffffffff8211156144f4576144f36143ae565b5b6144fd82613b93565b9050602081019050919050565b600061451d614518846144d9565b61440e565b905082815260208101848484011115614539576145386143a9565b5b61454484828561445a565b509392505050565b600082601f830112614561576145606143a4565b5b813561457184826020860161450a565b91505092915050565b6000806000806080858703121561459457614593613a90565b5b60006145a28782880161438f565b945050602085013567ffffffffffffffff8111156145c3576145c2613a95565b5b6145cf878288016144ab565b93505060406145e087828801613f68565b925050606085013567ffffffffffffffff81111561460157614600613a95565b5b61460d8782880161454c565b91505092959194509250565b6146228161414b565b82525050565b600060208201905061463d6000830184614619565b92915050565b600082825260208201905092915050565b600061465f82613b4d565b6146698185614643565b9350614679818560208601613b69565b61468281613b93565b840191505092915050565b600060208201905081810360008301526146a78184614654565b905092915050565b600067ffffffffffffffff8211156146ca576146c96143ae565b5b602082029050602081019050919050565b600080fd5b60006146f36146ee846146af565b61440e565b90508083825260208201905060208402830185811115614716576147156146db565b5b835b8181101561475d57803567ffffffffffffffff81111561473b5761473a6143a4565b5b80860161474889826144ab565b85526020850194505050602081019050614718565b5050509392505050565b600082601f83011261477c5761477b6143a4565b5b813561478c8482602086016146e0565b91505092915050565b600080600080600080600060e0888a0312156147b4576147b3613a90565b5b600088013567ffffffffffffffff8111156147d2576147d1613a95565b5b6147de8a828b016144ab565b975050602088013567ffffffffffffffff8111156147ff576147fe613a95565b5b61480b8a828b016144ab565b965050604088013567ffffffffffffffff81111561482c5761482b613a95565b5b6148388a828b01614767565b955050606088013567ffffffffffffffff81111561485957614858613a95565b5b6148658a828b01614767565b94505060806148768a828b01613abb565b93505060a06148878a828b01613abb565b92505060c06148988a828b01613abb565b91505092959891949750929550565b600082825260208201905092915050565b60006148c382613bdd565b6148cd81856148a7565b9350836020820285016148df85613bf9565b8060005b8581101561491b57848403895281516148fc8582613c09565b945061490783613c1d565b925060208a019950506001810190506148e3565b50829750879550505050505092915050565b6000602082019050818103600083015261494781846148b8565b905092915050565b61495881613b2c565b82525050565b6000602082019050614973600083018461494f565b92915050565b60006020828403121561498f5761498e613a90565b5b600061499d84828501613f68565b91505092915050565b600082825260208201905092915050565b60006149c282613dc7565b6149cc81856149a6565b93506149dc818560208601613b69565b6149e581613b93565b840191505092915050565b600060a082019050614a0560008301886140ce565b614a1260208301876140ce565b614a1f604083018661494f565b8181036060830152614a3181856149b7565b90508181036080830152614a458184614654565b90509695505050505050565b60008060408385031215614a6857614a67613a90565b5b600083013567ffffffffffffffff811115614a8657614a85613a95565b5b614a92858286016144ab565b9250506020614aa385828601613abb565b9150509250929050565b600080600060608486031215614ac657614ac5613a90565b5b6000614ad486828701613abb565b9350506020614ae586828701613abb565b925050604084013567ffffffffffffffff811115614b0657614b05613a95565b5b614b128682870161454c565b9150509250925092565b600067ffffffffffffffff821115614b3757614b366143ae565b5b602082029050602081019050919050565b6000614b5b614b5684614b1c565b61440e565b90508083825260208201905060208402830185811115614b7e57614b7d6146db565b5b835b81811015614ba75780614b938882613abb565b845260208401935050602081019050614b80565b5050509392505050565b600082601f830112614bc657614bc56143a4565b5b8135614bd6848260208601614b48565b91505092915050565b600080600080600060a08688031215614bfb57614bfa613a90565b5b6000614c0988828901613f68565b9550506020614c1a88828901613abb565b945050604086013567ffffffffffffffff811115614c3b57614c3a613a95565b5b614c4788828901614bb1565b935050606086013567ffffffffffffffff811115614c6857614c67613a95565b5b614c7488828901614767565b9250506080614c858882890161438f565b9150509295509295909350565b600081905082602060080282011115614cae57614cad6146db565b5b92915050565b60008060008060006101808688031215614cd157614cd0613a90565b5b6000614cdf88828901613abb565b9550506020614cf088828901613f68565b9450506040614d0188828901613abb565b9350506060614d1288828901613abb565b9250506080614d2388828901614c92565b9150509295509295909350565b600060e082019050614d45600083018a6140ce565b614d52602083018961494f565b8181036040830152614d648188614654565b90508181036060830152614d788187614654565b9050614d8760808301866140ce565b614d9460a08301856140ce565b614da160c08301846140ce565b98975050505050505050565b7f4e487b7100000000000000000000000000000000000000000000000000000000600052603260045260246000fd5b7f4e487b7100000000000000000000000000000000000000000000000000000000600052602260045260246000fd5b60006002820490506001821680614e2357607f821691505b602082108103614e3657614e35614ddc565b5b50919050565b7f4e487b7100000000000000000000000000000000000000000000000000000000600052601160045260246000fd5b6000614e7682613a9a565b9150614e8183613a9a565b9250828203905081811115614e9957614e98614e3c565b5b92915050565b614ea88161436e565b82525050565b6000604082019050614ec36000830185614e9f565b8181036020830152614ed58184614654565b90509392505050565b600081905092915050565b7f19457468657265756d205369676e6564204d6573736167653a0a333200000000600082015250565b6000614f1f601c83614ede565b9150614f2a82614ee9565b601c82019050919050565b6000819050919050565b614f50614f4b8261436e565b614f35565b82525050565b6000614f6182614f12565b9150614f6d8284614f3f565b60208201915081905092915050565b6000614f8782613a9a565b9150614f9283613a9a565b9250828202614fa081613a9a565b91508282048414831517614fb757614fb6614e3c565b5b5092915050565b6000614fc982613a9a565b9150614fd483613a9a565b9250828201905080821115614fec57614feb614e3c565b5b92915050565b7f4e6f7420456e6f756768204574682e0000000000000000000000000000000000600082015250565b6000615028600f83614643565b915061503382614ff2565b602082019050919050565b600060208201905081810360008301526150578161501b565b9050919050565b600061506982613a9a565b91507fffffffffffffffffffffffffffffffffffffffffffffffffffffffffffffffff820361509b5761509a614e3c565b5b600182019050919050565b7f50726f626c656d20646f6573206e6f742065786973742e000000000000000000600082015250565b60006150dc601783614643565b91506150e7826150a6565b602082019050919050565b6000602082019050818103600083015261510b816150cf565b9050919050565b7f55736572206973206e6f74206a6f696e656420746f207468652070726f626c6560008201527f6d2e000000000000000000000000000000000000000000000000000000000000602082015250565b600061516e602283614643565b915061517982615112565b604082019050919050565b6000602082019050818103600083015261519d81615161565b9050919050565b7f536f6c766520746865207461736b207468617420616c726561647920736f6c7660008201527f6564206279207468652073616d6520757365722069732070726f68696265747460208201527f65642e0000000000000000000000000000000000000000000000000000000000604082015250565b6000615226604383614643565b9150615231826151a4565b606082019050919050565b6000602082019050818103600083015261525581615219565b9050919050565b7f4d617820616e7377657273207375626d69747465642e00000000000000000000600082015250565b6000615292601683614643565b915061529d8261525c565b602082019050919050565b600060208201905081810360008301526152c181615285565b9050919050565b60008190508160005260206000209050919050565b60006020601f8301049050919050565b600082821b905092915050565b60006008830261532a7fffffffffffffffffffffffffffffffffffffffffffffffffffffffffffffffff826152ed565b61533486836152ed565b95508019841693508086168417925050509392505050565b6000819050919050565b600061537161536c61536784613a9a565b61534c565b613a9a565b9050919050565b6000819050919050565b61538b83615356565b61539f61539782615378565b8484546152fa565b825550505050565b600090565b6153b46153a7565b6153bf818484615382565b505050565b5b818110156153e3576153d86000826153ac565b6001810190506153c5565b5050565b601f821115615428576153f9816152c8565b615402846152dd565b81016020851015615411578190505b61542561541d856152dd565b8301826153c4565b50505b505050565b600082821c905092915050565b600061544b6000198460080261542d565b1980831691505092915050565b6000615464838361543a565b9150826002028217905092915050565b61547d82613dc7565b67ffffffffffffffff811115615496576154956143ae565b5b6154a08254614e0b565b6154ab8282856153e7565b600060209050601f8311600181146154de57600084156154cc578287015190505b6154d68582615458565b86555061553e565b601f1984166154ec866152c8565b60005b82811015615514578489015182556001820191506020850194506020810190506154ef565b86831015615531578489015161552d601f89168261543a565b8355505b6001600288020188555050505b505050505050565b60008190508160005260206000209050919050565b601f82111561559c5761556d81615546565b615576846152dd565b81016020851015615585578190505b615599615591856152dd565b8301826153c4565b50505b505050565b6155aa82613b4d565b67ffffffffffffffff8111156155c3576155c26143ae565b5b6155cd8254614e0b565b6155d882828561555b565b600060209050601f83116001811461560b57600084156155f9578287015190505b6156038582615458565b86555061566b565b601f19841661561986615546565b60005b828110156156415784890151825560018201915060208501945060208101905061561c565b8683101561565e578489015161565a601f89168261543a565b8355505b6001600288020188555050505b505050505050565b600060808201905061568860008301876140ce565b61569560208301866140ce565b81810360408301526156a781856149b7565b90506156b660608301846140ce565b95945050505050565b7f4c656e677468206f6620616e737765727320616e64207461736b416e7377657260008201527f49647320617265206e6f7420657175616c2e0000000000000000000000000000602082015250565b600061571b603283614643565b9150615726826156bf565b604082019050919050565b6000602082019050818103600083015261574a8161570e565b9050919050565b7f536f6d656f6e6520697320747279696e6720746f207573652070726f6f66206660008201527f6f7220616e6f7468657220757365722e00000000000000000000000000000000602082015250565b60006157ad603083614643565b91506157b882615751565b604082019050919050565b600060208201905081810360008301526157dc816157a0565b9050919050565b7f4e6f7420656e6f7567682076616c75652e000000000000000000000000000000600082015250565b6000615819601183614643565b9150615824826157e3565b602082019050919050565b600060208201905081810360008301526158488161580c565b9050919050565b60008160601b9050919050565b60006158678261584f565b9050919050565b60006158798261585c565b9050919050565b61589161588c82613b2c565b61586e565b82525050565b60006158a38284615880565b60148201915081905092915050565b82818337505050565b6158c861010083836158b2565b5050565b60006101a0820190506158e260008301896140ce565b6158ef60208301886140ce565b6158fc60408301876140ce565b61590960608301866140ce565b61591660808301856140ce565b61592360a08301846158bb565b979650505050505050565b7f576f726b657273206c696d697420726561636865642e00000000000000000000600082015250565b6000615964601683614643565b915061596f8261592e565b602082019050919050565b6000602082019050818103600083015261599381615957565b9050919050565b7f416c726561647920696e207468652070726f626c656d2e000000000000000000600082015250565b60006159d0601783614643565b91506159db8261599a565b602082019050919050565b600060208201905081810360008301526159ff816159c3565b9050919050565b7f4f776e61626c653a206e6577206f776e657220697320746865207a65726f206160008201527f6464726573730000000000000000000000000000000000000000000000000000602082015250565b6000615a62602683614643565b9150615a6d82615a06565b604082019050919050565b60006020820190508181036000830152615a9181615a55565b9050919050565b600081905092915050565b6000615aae82613dc7565b615ab88185615a98565b9350615ac8818560208601613b69565b80840191505092915050565b6000615ae08284615aa3565b915081905092915050565b7f4f776e61626c653a2063616c6c6572206973206e6f7420746865206f776e6572600082015250565b6000615b21602083614643565b9150615b2c82615aeb565b602082019050919050565b60006020820190508181036000830152615b5081615b14565b9050919050565b600060ff82169050919050565b615b6d81615b57565b82525050565b6000608082019050615b886000830187614e9f565b615b956020830186615b64565b615ba26040830185614e9f565b615baf6060830184614e9f565b95945050505050565b60006040820190508181036000830152615bd28185614654565b90508181036020830152615be68184614654565b90509392505050565b6000615bfa82613b4d565b615c048185614ede565b9350615c14818560208601613b69565b80840191505092915050565b6000615c2c8284615bef565b915081905092915050565b60006040820190508181036000830152615c518185614654565b9050615c6060208301846140ce565b9392505050565b7f416e73776572206576656e206973206e6f7420616c6c6f7765642e0000000000600082015250565b6000615c9d601b83614643565b9150615ca882615c67565b602082019050919050565b60006020820190508181036000830152615ccc81615c90565b9050919050565b7f416c7265616479206465636970686572656420616e737765722e000000000000600082015250565b6000615d09601a83614643565b9150615d1482615cd3565b602082019050919050565b60006020820190508181036000830152615d3881615cfc565b9050919050565b7f5369676e6174757265206f722073656564206973206e6f742076616c69642e00600082015250565b6000615d75601f83614643565b9150615d8082615d3f565b602082019050919050565b60006020820190508181036000830152615da481615d68565b905091905056fea26469706673582212206b454f29d7fb17cb70ff0798fc01cec2b3ae6d5aad7cacdb928d83430e2b8c2e64736f6c63430008120033",
  "linkReferences": {},
  "deployedLinkReferences": {}
}